{
  "contractName": "BN256G1",
  "abi": [
    {
      "inputs": [],
      "name": "GX",
      "outputs": [
        {
          "internalType": "uint256",
          "name": "",
          "type": "uint256"
        }
      ],
      "stateMutability": "view",
      "type": "function"
    },
    {
      "inputs": [],
      "name": "GY",
      "outputs": [
        {
          "internalType": "uint256",
          "name": "",
          "type": "uint256"
        }
      ],
      "stateMutability": "view",
      "type": "function"
    }
  ],
  "bytecode": "0x60ba610025600b82828239805160001a60731461001857fe5b30600052607381538281f3fe7300000000000000000000000000000000000000003014608060405260043610603d5760003560e01c806303a507be1460425780637a308a4c14605e575b600080fd5b6048607a565b6040518082815260200191505060405180910390f35b6064607f565b6040518082815260200191505060405180910390f35b600181565b60028156fea2646970667358221220cbeca8068cd849d3026c73aa29a834121efac3d224df72cc11e44d42c43539a364736f6c63430006090033",
  "immutableReferences": {},
  "source": "// SPDX-License-Identifier: MIT\r\n\r\npragma solidity >0.6.8;\r\n\r\n// import \"elliptic-curve-solidity/contracts/EllipticCurve.sol\";\r\nimport \"./EllipticCurve.sol\";\r\n\r\n\r\n/**\r\n * @title BN256G1 Curve Library\r\n * @dev Library providing arithmetic operations over G1 in bn256.\r\n * Provides additional methods like pairing and pairing_batch\r\n * Heavily influenced by https://github.com/PhilippSchindler/ethdkg\r\n * Calls to assembly are public and not external because assembly cannot be applied on calldata\r\n * @author Witnet Foundation\r\n */\r\n\r\nlibrary BN256G1 {\r\n\r\n  // Generator coordinate `x` of the EC curve\r\n  uint256 public constant GX = 1;\r\n  // Generator coordinate `y` of the EC curve\r\n  uint256 public constant GY = 2;\r\n  // Constant `a` of EC equation\r\n  uint256 internal constant AA = 0;\r\n  // Constant `b` of EC equation\r\n  uint256 internal constant BB = 3;\r\n  // Prime number of the curve\r\n  uint256 internal constant PP = 0x30644e72e131a029b85045b68181585d97816a916871ca8d3c208c16d87cfd47;\r\n  // Order of the curve\r\n  uint256 internal constant NN = 0x30644e72e131a029b85045b68181585d2833e84879b9709143e1f593f0000001;\r\n\r\n  /// This is 0xf1f5883e65f820d099915c908786b9d3f58714d70a38f4c22ca2bc723a70f263, the last mulitple of the modulus before 2^256\r\n  uint256 internal constant LAST_MULTIPLE_OF_PP_LOWER_THAN_2_256 = 0xf1f5883e65f820d099915c908786b9d3f58714d70a38f4c22ca2bc723a70f263;\r\n\r\n\r\n  /// @dev  computes P + Q\r\n  /// @param input: 4 values of 256 bits each\r\n  ///  *) x-coordinate of point P\r\n  ///  *) y-coordinate of point P\r\n  ///  *) x-coordinate of point Q\r\n  ///  *) y-coordinate of point Q\r\n  /// @return An array with x and y coordinates of P+Q.\r\n  function add(uint256[4] memory input) internal returns (uint256, uint256) {\r\n    bool success;\r\n    uint256[2] memory result;\r\n    assembly {\r\n      // 0x06     id of the bn256Add precompile\r\n      // 0        number of ether to transfer\r\n      // 128      size of call parameters, i.e. 128 bytes total\r\n      // 64       size of call return value, i.e. 64 bytes / 512 bit for a BN256 curve point\r\n      success := call(not(0), 0x06, 0, input, 128, result, 64)\r\n    }\r\n    require(success, \"bn256 addition failed\");\r\n\r\n    return (result[0], result[1]);\r\n  }\r\n\r\n  /// @dev  computes P*k.\r\n  /// @param input: 3 values of 256 bits each:\r\n  ///  *) x-coordinate of point P\r\n  ///  *) y-coordinate of point P\r\n  ///  *) scalar k.\r\n  /// @return An array with x and y coordinates of P*k.\r\n  function multiply(uint256[3] memory input) internal returns (uint256, uint256) {\r\n    bool success;\r\n    uint256[2] memory result;\r\n    assembly {\r\n      // 0x07     id of the bn256ScalarMul precompile\r\n      // 0        number of ether to transfer\r\n      // 96       size of call parameters, i.e. 96 bytes total (256 bit for x, 256 bit for y, 256 bit for scalar)\r\n      // 64       size of call return value, i.e. 64 bytes / 512 bit for a BN256 curve point\r\n      success := call(not(0), 0x07, 0, input, 96, result, 64)\r\n    }\r\n    require(success, \"elliptic curve multiplication failed\");\r\n    return (result[0], result[1]);\r\n  }\r\n\r\n  /// @dev Checks if P is on G1 using the EllipticCurve library.\r\n  /// @param point: 2 values of 256 bits each:\r\n  ///  *) x-coordinate of point P\r\n  ///  *) y-coordinate of point P\r\n  /// @return true if P is in G1.\r\n  function isOnCurve(uint[2] memory point) internal pure returns (bool) {\r\n    // checks if the given point is a valid point from the first elliptic curve group\r\n    // uses the EllipticCurve library\r\n    return EllipticCurve.isOnCurve(\r\n      point[0],\r\n      point[1],\r\n      AA,\r\n      BB,\r\n      PP);\r\n  }\r\n\r\n  /// @dev Checks if e(P, Q) = e (R,S).\r\n  /// @param input: 12 values of 256 bits each:\r\n  ///  *) x-coordinate of point P\r\n  ///  *) y-coordinate of point P\r\n  ///  *) x real coordinate of point Q\r\n  ///  *) x imaginary coordinate of point Q\r\n  ///  *) y real coordinate of point Q\r\n  ///  *) y imaginary coordinate of point Q\r\n  ///  *) x-coordinate of point R\r\n  ///  *) y-coordinate of point R\r\n  ///  *) x real coordinate of point S\r\n  ///  *) x imaginary coordinate of point S\r\n  ///  *) y real coordinate of point S\r\n  ///  *) y imaginary coordinate of point S\r\n  /// @return true if e(P, Q) = e (R,S).\r\n  function bn256CheckPairing(uint256[12] memory input) internal returns (bool) {\r\n    uint256[1] memory result;\r\n    bool success;\r\n    assembly {\r\n      // 0x08     id of the bn256CheckPairing precompile    (checking the elliptic curve pairings)\r\n      // 0        number of ether to transfer\r\n      // 0        since we have an array of fixed length, our input starts in 0\r\n      // 384      size of call parameters, i.e. 12*256 bits == 384 bytes\r\n      // 32       size of result (one 32 byte boolean!)\r\n      success := call(sub(gas(), 2000), 0x08, 0, input, 384, result, 32)\r\n    }\r\n    require(success, \"elliptic curve pairing failed\");\r\n    return result[0] == 1;\r\n  }\r\n\r\n  /// @dev Checks if e(P, Q) = e (R,S)*e(T,U)...\r\n  /// @param input: A modulo 6 length array of values of 256 bits each:\r\n  ///  *) x-coordinate of point P\r\n  ///  *) y-coordinate of point P\r\n  ///  *) x real coordinate of point Q\r\n  ///  *) x imaginary coordinate of point Q\r\n  ///  *) y real coordinate of point Q\r\n  ///  *) y imaginary coordinate of point Q\r\n  ///  *) x-coordinate of point R\r\n  ///  *) y-coordinate of point R\r\n  ///  *) x real coordinate of point S\r\n  ///  *) x imaginary coordinate of point S\r\n  ///  *) y real coordinate of point S\r\n  ///  *) y imaginary coordinate of point S\r\n  ///  *) and so forth with additional pairing checks\r\n  /// @return true if e(input[0,1], input[2,3,4,5]) = e(input[6,7], input[8,9,10,11])*e(input[12,13], input[14,15,16,17])...\r\n  function bn256CheckPairingBatch(uint256[] memory input) internal returns (bool) {\r\n    uint256[1] memory result;\r\n    bool success;\r\n    require(input.length % 6 == 0, \"Incorrect input length\");\r\n    uint256 inLen = input.length * 32;\r\n    assembly {\r\n      // 0x08     id of the bn256CheckPairing precompile     (checking the elliptic curve pairings)\r\n      // 0        number of ether to transfer\r\n      // add(input, 0x20) since we have an unbounded array, the first 256 bits refer to its length\r\n      // 384      size of call parameters, i.e. 12*256 bits == 384 bytes\r\n      // 32       size of result (one 32 byte boolean!)\r\n      success := call(sub(gas(), 2000), 0x08, 0, add(input, 0x20), inLen, result, 32)\r\n    }\r\n    require(success, \"elliptic curve pairing failed\");\r\n    return result[0] == 1;\r\n  }\r\n\r\n  /// @dev Function to transform compressed bytes into a x and a y coordinate in the curve.\r\n  /// @param _point The point bytes\r\n  /// @return The coordinates `x` and `y` in an array\r\n  function fromCompressed(bytes memory _point) internal pure returns (uint256, uint256) {\r\n    require(_point.length == 33, \"invalid encoding\");\r\n    uint8 sign;\r\n    uint256 x;\r\n    assembly {\r\n      sign := mload(add(_point, 1))\r\n\t    x := mload(add(_point, 33))\r\n    }\r\n\r\n    return (\r\n      x, deriveY(\r\n        sign,\r\n        x)\r\n      );\r\n  }\r\n\r\n  /// @dev Function to convert a `Hash(msg|DATA)` to a point in the curve as defined in [VRF-draft-04](https://tools.ietf.org/pdf/draft-irtf-cfrg-vrf-04).\r\n  /// @param _message The message used for computing the VRF\r\n  /// @return The hash point in affine coordinates\r\n  function hashToTryAndIncrement(bytes memory _message) internal pure returns (uint, uint) {\r\n    // Find a valid EC point\r\n    // Loop over counter ctr starting at 0x00 and do hash\r\n    for (uint8 ctr = 0; ctr < 256; ctr++) {\r\n      // Counter update\r\n      // c[cLength-1] = byte(ctr);\r\n      bytes32 sha = sha256(abi.encodePacked(_message, ctr));\r\n      // Step 4: arbitraty string to point and check if it is on curve\r\n      uint hPointX = uint256(sha);\r\n      // Avoid hashes that are above the last multiple of _PP, otherwise odds are biased\r\n      if (hPointX >= LAST_MULTIPLE_OF_PP_LOWER_THAN_2_256) {\r\n        continue;\r\n      }\r\n      // Do the modulus to avoid excesive iterations of the loop\r\n      hPointX = hPointX % PP;\r\n      uint hPointY = deriveY(2, hPointX);\r\n      // we do not use the subsidized one as it appears to consume more gas\r\n      if (isOnCurve([hPointX,hPointY])) {\r\n        // Step 5 (omitted): calculate H (cofactor is 1 on bn256g1)\r\n        // If H is not \"INVALID\" and cofactor > 1, set H = cofactor * H\r\n        return (hPointX, hPointY);\r\n      }\r\n    }\r\n    revert(\"No valid point was found\");\r\n  }\r\n\r\n  /// @dev Function to derive the `y` coordinate given the `x` coordinate and the parity byte (`0x03` for odd `y` and `0x04` for even `y`).\r\n  /// @param _yByte The parity byte following the ec point compressed format\r\n  /// @param _x The coordinate `x` of the point\r\n  /// @return The coordinate `y` of the point\r\n  function deriveY(uint8 _yByte, uint256 _x) internal pure returns (uint256) {\r\n    return EllipticCurve.deriveY(\r\n      _yByte,\r\n      _x,\r\n      AA,\r\n      BB,\r\n      PP);\r\n  }\r\n\r\n}",
  "sourcePath": "D:\\nxshen\\github\\contract_deploy\\contracts\\BN256G1.sol",
  "compiler": {
    "name": "solc",
    "version": "0.6.9+commit.3e3065ac.Emscripten.clang"
  },
  "schemaVersion": "3.4.3",
  "updatedAt": "2021-09-30T02:10:25.900Z",
  "devdoc": {
    "author": "Witnet Foundation",
    "details": "Library providing arithmetic operations over G1 in bn256. Provides additional methods like pairing and pairing_batch Heavily influenced by https://github.com/PhilippSchindler/ethdkg Calls to assembly are public and not external because assembly cannot be applied on calldata",
    "methods": {},
    "title": "BN256G1 Curve Library"
  },
  "userdoc": {
    "methods": {}
  }
}