{
  "contractName": "BN256G2",
  "abi": [
    {
      "inputs": [],
      "name": "G2_NEG_X_IM",
      "outputs": [
        {
          "internalType": "uint256",
          "name": "",
          "type": "uint256"
        }
      ],
      "stateMutability": "view",
      "type": "function"
    },
    {
      "inputs": [],
      "name": "G2_NEG_X_RE",
      "outputs": [
        {
          "internalType": "uint256",
          "name": "",
          "type": "uint256"
        }
      ],
      "stateMutability": "view",
      "type": "function"
    },
    {
      "inputs": [],
      "name": "G2_NEG_Y_IM",
      "outputs": [
        {
          "internalType": "uint256",
          "name": "",
          "type": "uint256"
        }
      ],
      "stateMutability": "view",
      "type": "function"
    },
    {
      "inputs": [],
      "name": "G2_NEG_Y_RE",
      "outputs": [
        {
          "internalType": "uint256",
          "name": "",
          "type": "uint256"
        }
      ],
      "stateMutability": "view",
      "type": "function"
    },
    {
      "inputs": [],
      "name": "G2_XX",
      "outputs": [
        {
          "internalType": "uint256",
          "name": "",
          "type": "uint256"
        }
      ],
      "stateMutability": "view",
      "type": "function"
    },
    {
      "inputs": [],
      "name": "G2_XY",
      "outputs": [
        {
          "internalType": "uint256",
          "name": "",
          "type": "uint256"
        }
      ],
      "stateMutability": "view",
      "type": "function"
    },
    {
      "inputs": [],
      "name": "G2_YX",
      "outputs": [
        {
          "internalType": "uint256",
          "name": "",
          "type": "uint256"
        }
      ],
      "stateMutability": "view",
      "type": "function"
    },
    {
      "inputs": [],
      "name": "G2_YY",
      "outputs": [
        {
          "internalType": "uint256",
          "name": "",
          "type": "uint256"
        }
      ],
      "stateMutability": "view",
      "type": "function"
    },
    {
      "inputs": [],
      "name": "getFieldModulus",
      "outputs": [
        {
          "internalType": "uint256",
          "name": "",
          "type": "uint256"
        }
      ],
      "stateMutability": "pure",
      "type": "function"
    }
  ],
  "bytecode": "0x61032e610026600b82828239805160001a60731461001957fe5b30600052607381538281f3fe730000000000000000000000000000000000000000301460806040526004361061009d5760003560e01c80636ebe8600116100705780636ebe86001461011a578063779d890d14610138578063783bde80146101565780639b0c399a14610174578063ad50f9c1146101925761009d565b806309e61212146100a257806346f5ff5f146100c057806351206752146100de5780636cbc8dff146100fc575b600080fd5b6100aa6101b0565b6040518082815260200191505060405180910390f35b6100c86101d4565b6040518082815260200191505060405180910390f35b6100e66101f8565b6040518082815260200191505060405180910390f35b61010461021c565b6040518082815260200191505060405180910390f35b610122610240565b6040518082815260200191505060405180910390f35b610140610264565b6040518082815260200191505060405180910390f35b61015e61028c565b6040518082815260200191505060405180910390f35b61017c6102b0565b6040518082815260200191505060405180910390f35b61019a6102d4565b6040518082815260200191505060405180910390f35b7f12c85ea5db8c6deb4aab71808dcb408fe3d1e7690c43d37b4ce6cc0166fa7daa81565b7f198e9393920d483a7260bfb731fb5d25f1aa493335a9e71297e485b7aef312c281565b7f1d9befcd05a5323e6da4d435f3b617cdb3af83285c2df711ef39c01571827f9d81565b7f1800deef121f1e76426a00665e5c4479674322d4f75edadd46debd5cd992f6ed81565b7f090689d0585ff075ec9e99ad690c3395bc4b313370b38ef355acdadcd122975b81565b60007f30644e72e131a029b85045b68181585d97816a916871ca8d3c208c16d87cfd47905090565b7f198e9393920d483a7260bfb731fb5d25f1aa493335a9e71297e485b7aef312c281565b7f1800deef121f1e76426a00665e5c4479674322d4f75edadd46debd5cd992f6ed81565b7f275dc4a288d1afb3cbb1ac09187524c7db36395df7be3b99e673b13a075a65ec8156fea26469706673582212203a3e9888f546f9b4ce33ef690ab03a4d68ad2ceb085de22dccfeeafa49c73aee64736f6c63430006090033",
  "immutableReferences": {},
  "source": "// SPDX-License-Identifier: MIT\r\n// solium-disable security/no-assign-params\r\n\r\npragma solidity >0.6.8;\r\n\r\n\r\n/**\r\n * @title Elliptic curve operations on twist points on bn256 (G2)\r\n * @dev Adaptation of https://github.com/musalbas/solidity-BN256G2 to 0.6.0\r\n */\r\nlibrary BN256G2 {\r\n  uint256 internal constant FIELD_MODULUS = 0x30644e72e131a029b85045b68181585d97816a916871ca8d3c208c16d87cfd47;\r\n  uint256 internal constant TWISTBX = 0x2b149d40ceb8aaae81be18991be06ac3b5b4c5e559dbefa33267e6dc24a138e5;\r\n  uint256 internal constant TWISTBY = 0x9713b03af0fed4cd2cafadeed8fdf4a74fa084e52d1852e4a2bd0685c315d2;\r\n  uint internal constant PTXX = 0;\r\n  uint internal constant PTXY = 1;\r\n  uint internal constant PTYX = 2;\r\n  uint internal constant PTYY = 3;\r\n  uint internal constant PTZX = 4;\r\n  uint internal constant PTZY = 5;\r\n\r\n  uint256 public constant G2_XX  = 0x198E9393920D483A7260BFB731FB5D25F1AA493335A9E71297E485B7AEF312C2;\r\n  uint256 public constant G2_XY  = 0x1800deef121f1e76426a00665e5c4479674322d4f75edadd46debd5cd992f6ed;\r\n  uint256 public constant G2_YX  = 0x90689d0585ff075ec9e99ad690c3395bc4b313370b38ef355acdadcd122975b;\r\n  uint256 public constant G2_YY  = 0x12c85ea5db8c6deb4aab71808dcb408fe3d1e7690c43d37b4ce6cc0166fa7daa;\r\n  // This is the generator negated, to use for pairing\r\n  uint256 public constant G2_NEG_X_RE  = 0x198E9393920D483A7260BFB731FB5D25F1AA493335A9E71297E485B7AEF312C2;\r\n  uint256 public constant G2_NEG_X_IM  = 0x1800DEEF121F1E76426A00665E5C4479674322D4F75EDADD46DEBD5CD992F6ED;\r\n  uint256 public constant G2_NEG_Y_RE  = 0x275dc4a288d1afb3cbb1ac09187524c7db36395df7be3b99e673b13a075a65ec;\r\n  uint256 public constant G2_NEG_Y_IM  = 0x1d9befcd05a5323e6da4d435f3b617cdb3af83285c2df711ef39c01571827f9d;\r\n\r\n  /**\r\n  * @notice Add two twist points\r\n  * @param pt1xx Coefficient 1 of x on point 1\r\n  * @param pt1xy Coefficient 2 of x on point 1\r\n  * @param pt1yx Coefficient 1 of y on point 1\r\n  * @param pt1yy Coefficient 2 of y on point 1\r\n  * @param pt2xx Coefficient 1 of x on point 2\r\n  * @param pt2xy Coefficient 2 of x on point 2\r\n  * @param pt2yx Coefficient 1 of y on point 2\r\n  * @param pt2yy Coefficient 2 of y on point 2\r\n  * @return (pt3xx, pt3xy, pt3yx, pt3yy)\r\n  */\r\n  function ecTwistAdd(\r\n    uint256 pt1xx, uint256 pt1xy,\r\n    uint256 pt1yx, uint256 pt1yy,\r\n    uint256 pt2xx, uint256 pt2xy,\r\n    uint256 pt2yx, uint256 pt2yy\r\n  )\r\n  internal view returns (uint256, uint256, uint256, uint256)\r\n  {\r\n    if (pt1xx == 0 && pt1xy == 0 && pt1yx == 0 && pt1yy == 0) {\r\n      if (!(pt2xx == 0 && pt2xy == 0 && pt2yx == 0 && pt2yy == 0)) {\r\n        require(\r\n          _isOnCurve(\r\n            pt2xx,\r\n            pt2xy,\r\n            pt2yx,\r\n            pt2yy\r\n          ),\r\n          \"point not in curve\");\r\n        }\r\n      return (\r\n        pt2xx,\r\n        pt2xy,\r\n        pt2yx,\r\n        pt2yy);\r\n    } else if (pt2xx == 0 && pt2xy == 0 && pt2yx == 0 && pt2yy == 0) {\r\n      require(\r\n        _isOnCurve(\r\n          pt1xx,\r\n          pt1xy,\r\n          pt1yx,\r\n          pt1yy),\r\n        \"point not in curve\");\r\n      return (\r\n        pt1xx,\r\n        pt1xy,\r\n        pt1yx,\r\n        pt1yy);\r\n    }\r\n\r\n    require(\r\n      _isOnCurve(\r\n        pt1xx,\r\n        pt1xy,\r\n        pt1yx,\r\n        pt1yy\r\n        ),\r\n      \"point not in curve\");\r\n\r\n    require(\r\n      _isOnCurve(\r\n        pt2xx,\r\n        pt2xy,\r\n        pt2yx,\r\n        pt2yy\r\n        ),\r\n      \"point not in curve\");\r\n\r\n    uint256[6] memory pt3 = ecTwistAddJacobian(\r\n      pt1xx,\r\n      pt1xy,\r\n      pt1yx,\r\n      pt1yy,\r\n      1,\r\n      0,\r\n      pt2xx,\r\n      pt2xy,\r\n      pt2yx,\r\n      pt2yy,\r\n      1,\r\n      0\r\n    );\r\n\r\n    return _fromJacobian(\r\n      pt3[PTXX],\r\n      pt3[PTXY],\r\n      pt3[PTYX],\r\n      pt3[PTYY],\r\n      pt3[PTZX],\r\n      pt3[PTZY]\r\n    );\r\n  }\r\n\r\n  /**\r\n  * @notice Multiply a twist point by a scalar\r\n  * @param s     Scalar to multiply by\r\n  * @param pt1xx Coefficient 1 of x\r\n  * @param pt1xy Coefficient 2 of x\r\n  * @param pt1yx Coefficient 1 of y\r\n  * @param pt1yy Coefficient 2 of y\r\n  * @return (pt2xx, pt2xy, pt2yx, pt2yy)\r\n  */\r\n  function ecTwistMul(\r\n    uint256 s,\r\n    uint256 pt1xx, uint256 pt1xy,\r\n    uint256 pt1yx, uint256 pt1yy\r\n  ) internal view returns (uint256, uint256, uint256, uint256)\r\n  {\r\n    uint256 pt1zx = 1;\r\n    if (pt1xx == 0 && pt1xy == 0 && pt1yx == 0 && pt1yy == 0) {\r\n      pt1xx = 1;\r\n      pt1yx = 1;\r\n      pt1zx = 0;\r\n    } else {\r\n      require(\r\n        _isOnCurve(\r\n          pt1xx,\r\n          pt1xy,\r\n          pt1yx,\r\n          pt1yy\r\n        ),\"point not in curve\");\r\n    }\r\n    uint256[6] memory pt2 = _ecTwistMulJacobian(\r\n      s,\r\n      pt1xx, pt1xy,\r\n      pt1yx, pt1yy,\r\n      pt1zx, 0\r\n    );\r\n\r\n    return _fromJacobian(\r\n      pt2[PTXX], pt2[PTXY],\r\n      pt2[PTYX], pt2[PTYY],\r\n      pt2[PTZX], pt2[PTZY]\r\n    );\r\n  }\r\n\r\n  /**\r\n  * @notice Get the field modulus\r\n  * @return The field modulus\r\n  */\r\n  function getFieldModulus() external pure returns (uint256) {\r\n    return FIELD_MODULUS;\r\n  }\r\n\r\n  /**\r\n  * @notice a-b mod n\r\n  * @param a First operand\r\n  * @param b Second operand\r\n  * @param n modulus\r\n  * @return The result of the operation\r\n  */\r\n  function submod(uint256 a, uint256 b, uint256 n) internal pure returns (uint256) {\r\n    return addmod(a, n - b, n);\r\n  }\r\n\r\n  /**\r\n  * @notice FQ2*FQ2 multiplication operation\r\n  * @param xx First FQ2 operands first coordinate\r\n  * @param xy First FQ2 operands second coordinate\r\n  * @param yx Second FQ2 operands first coordinate\r\n  * @param yy Second FQ2 operands second coordinate\r\n  * @return [xx*yx-xy*yy, xx*yy+xy*yx]\r\n  */\r\n  function _fq2mul(\r\n    uint256 xx, uint256 xy,\r\n    uint256 yx, uint256 yy\r\n  )\r\n  internal\r\n  pure\r\n  returns (uint256, uint256)\r\n  {\r\n    return (\r\n      submod(mulmod(xx, yx, FIELD_MODULUS), mulmod(xy, yy, FIELD_MODULUS), FIELD_MODULUS),\r\n      addmod(mulmod(xx, yy, FIELD_MODULUS), mulmod(xy, yx, FIELD_MODULUS), FIELD_MODULUS)\r\n    );\r\n  }\r\n\r\n  /**\r\n  * @notice Fq2*k multiplication operation\r\n  * @param xx FQ2 operands first coordinate\r\n  * @param xy FQ2 operands second coordinate\r\n  * @param k scalar to multiply with\r\n  * @return [xx*k, xy*k]\r\n  */\r\n  function _fq2muc(\r\n    uint256 xx, uint256 xy,\r\n    uint256 k\r\n  )\r\n  internal\r\n  pure\r\n  returns (uint256, uint256)\r\n  {\r\n    return (\r\n      mulmod(xx, k, FIELD_MODULUS),\r\n      mulmod(xy, k, FIELD_MODULUS)\r\n    );\r\n  }\r\n\r\n  /**\r\n  * @notice FQ2+FQ2 addition operation\r\n  * @param xx First FQ2 operands first coordinate\r\n  * @param xy First FQ2 operands second coordinate\r\n  * @param yx Second FQ2 operands first coordinate\r\n  * @param yy Second FQ2 operands second coordinate\r\n  * @return [xx+yx, xy+yy]f\r\n  */\r\n  function _fq2add(\r\n    uint256 xx, uint256 xy,\r\n    uint256 yx, uint256 yy\r\n  )\r\n  internal\r\n  pure\r\n  returns(uint256, uint256)\r\n  {\r\n    return (\r\n      addmod(xx, yx, FIELD_MODULUS),\r\n      addmod(xy, yy, FIELD_MODULUS)\r\n    );\r\n  }\r\n\r\n  /**\r\n  * @notice FQ2-FQ2 substraction operation\r\n  * @param xx First FQ2 operands first coordinate\r\n  * @param xy First FQ2 operands second coordinate\r\n  * @param yx Second FQ2 operands first coordinate\r\n  * @param yy Second FQ2 operands second coordinate\r\n  * @return [xx-yx, xy-yy]\r\n  */\r\n  function _fq2sub(\r\n    uint256 xx, uint256 xy,\r\n    uint256 yx, uint256 yy\r\n  )\r\n  internal\r\n  pure\r\n  returns (uint256, uint256)\r\n  {\r\n    return (\r\n      submod(xx, yx, FIELD_MODULUS),\r\n      submod(xy, yy, FIELD_MODULUS)\r\n    );\r\n  }\r\n\r\n  /**\r\n  * @notice FQ2/FQ2 division operation\r\n  * @param xx First FQ2 operands first coordinate\r\n  * @param xy First FQ2 operands second coordinate\r\n  * @param yx Second FQ2 operands first coordinate\r\n  * @param yy Second FQ2 operands second coordinate\r\n  * @return [xx, xy] * Inv([yx, yy])\r\n  */\r\n  function _fq2div(\r\n    uint256 xx, uint256 xy,\r\n    uint256 yx, uint256 yy\r\n  )\r\n  internal\r\n  view\r\n  returns (uint256, uint256)\r\n  {\r\n    (yx, yy) = _fq2inv(yx, yy);\r\n    return _fq2mul(\r\n      xx,\r\n      xy,\r\n      yx,\r\n      yy);\r\n  }\r\n\r\n  /**\r\n  * @notice 1/FQ2 inverse operation\r\n  * @param x FQ2 operands first coordinate\r\n  * @param y FQ2 operands second coordinate\r\n  * @return Inv([xx, xy])\r\n  */\r\n  function _fq2inv(uint256 x, uint256 y) internal view returns (uint256, uint256) {\r\n    uint256 inv = _modInv(addmod(mulmod(y, y, FIELD_MODULUS), mulmod(x, x, FIELD_MODULUS), FIELD_MODULUS), FIELD_MODULUS);\r\n    return (\r\n      mulmod(x, inv, FIELD_MODULUS),\r\n      FIELD_MODULUS - mulmod(y, inv, FIELD_MODULUS)\r\n    );\r\n  }\r\n\r\n  /**\r\n  * @notice Checks if FQ2 is on G2\r\n  * @param xx First FQ2 operands first coordinate\r\n  * @param xy First FQ2 operands second coordinate\r\n  * @param yx Second FQ2 operands first coordinate\r\n  * @param yy Second FQ2 operands second coordinate\r\n  * @return True if the FQ2 is on G2\r\n  */\r\n  function _isOnCurve(\r\n    uint256 xx, uint256 xy,\r\n    uint256 yx, uint256 yy\r\n  )\r\n  internal\r\n  pure\r\n  returns (bool)\r\n  {\r\n    uint256 yyx;\r\n    uint256 yyy;\r\n    uint256 xxxx;\r\n    uint256 xxxy;\r\n    (yyx, yyy) = _fq2mul(\r\n      yx,\r\n      yy,\r\n      yx,\r\n      yy);\r\n    (xxxx, xxxy) = _fq2mul(\r\n      xx,\r\n      xy,\r\n      xx,\r\n      xy);\r\n    (xxxx, xxxy) = _fq2mul(\r\n      xxxx,\r\n      xxxy,\r\n      xx,\r\n      xy);\r\n    (yyx, yyy) = _fq2sub(\r\n      yyx,\r\n      yyy,\r\n      xxxx,\r\n      xxxy);\r\n    (yyx, yyy) = _fq2sub(\r\n      yyx,\r\n      yyy,\r\n      TWISTBX,\r\n      TWISTBY);\r\n    return yyx == 0 && yyy == 0;\r\n  }\r\n\r\n  /**\r\n  * @notice Calculates the modular inverse of a over n\r\n  * @param a The operand to calcualte the inverse of\r\n  * @param n The modulus\r\n  * @return result Inv(a)modn\r\n  **/\r\n  function _modInv(uint256 a, uint256 n) internal view returns (uint256 result) {\r\n    bool success;\r\n    assembly {\r\n      let freemem := mload(0x40)\r\n      mstore(freemem, 0x20)\r\n      mstore(add(freemem,0x20), 0x20)\r\n      mstore(add(freemem,0x40), 0x20)\r\n      mstore(add(freemem,0x60), a)\r\n      mstore(add(freemem,0x80), sub(n, 2))\r\n      mstore(add(freemem,0xA0), n)\r\n      success := staticcall(sub(gas(), 2000), 5, freemem, 0xC0, freemem, 0x20)\r\n      result := mload(freemem)\r\n    }\r\n    require(success, \"error calculating the modular inverse\");\r\n  }\r\n\r\n  /**\r\n  * @notice Converts a point from jacobian to affine\r\n  * @param pt1xx First point x real coordinate\r\n  * @param pt1xy First point x imaginary coordinate\r\n  * @param pt1yx First point y real coordinate\r\n  * @param pt1yy First point y imaginary coordinate\r\n  * @param pt1zx First point z real coordinate\r\n  * @param pt1zy First point z imaginary coordinate\r\n  * @return pt2xx (x real affine coordinate)\r\n            pt2xy (x imaginary affine coordinate)\r\n            pt2yx (y real affine coordinate)\r\n            pt1zy (y imaginary affine coordinate)\r\n  **/\r\n  function _fromJacobian(\r\n    uint256 pt1xx, uint256 pt1xy,\r\n    uint256 pt1yx, uint256 pt1yy,\r\n    uint256 pt1zx, uint256 pt1zy\r\n  )\r\n  internal view returns (uint256, uint256, uint256, uint256)\r\n  {\r\n    uint256 invzx;\r\n    uint256 invzy;\r\n    uint256[4] memory pt2;\r\n    (invzx, invzy) = _fq2inv(pt1zx, pt1zy);\r\n    (pt2[0], pt2[1]) = _fq2mul(\r\n      pt1xx,\r\n      pt1xy,\r\n      invzx,\r\n      invzy);\r\n    (pt2[2], pt2[3]) = _fq2mul(\r\n      pt1yx,\r\n      pt1yy,\r\n      invzx,\r\n      invzy);\r\n    return(\r\n      pt2[0],\r\n      pt2[1],\r\n      pt2[2],\r\n      pt2[3]);\r\n  }\r\n\r\n/**\r\n* @notice Adds two points in jacobian coordinates\r\n* @param pt1xx First point x real coordinate\r\n* @param pt1xy First point x imaginary coordinate\r\n* @param pt1yx First point y real coordinate\r\n* @param pt1yy First point y imaginary coordinate\r\n* @param pt1zx First point z real coordinate\r\n* @param pt1zy First point z imaginary coordinate\r\n* @param pt2xx Second point x real coordinate\r\n* @param pt2xy Second point x imaginary coordinate\r\n* @param pt2yx Second point y real coordinate\r\n* @param pt2yy Second point y imaginary coordinate\r\n* @param pt2zx Second point z real coordinate\r\n* @param pt2zy Second point z imaginary coordinate\r\n* @return pt3 = pt1+pt2 in jacobian\r\n**/\r\n  function ecTwistAddJacobian(\r\n    uint256 pt1xx, uint256 pt1xy,\r\n    uint256 pt1yx, uint256 pt1yy,\r\n    uint256 pt1zx, uint256 pt1zy,\r\n    uint256 pt2xx, uint256 pt2xy,\r\n    uint256 pt2yx, uint256 pt2yy,\r\n    uint256 pt2zx, uint256 pt2zy)\r\n  internal\r\n  pure\r\n  returns (uint256[6] memory pt3)\r\n  {\r\n    if (pt1zx == 0 && pt1zy == 0) {\r\n      (\r\n        pt3[PTXX], pt3[PTXY],\r\n        pt3[PTYX], pt3[PTYY],\r\n        pt3[PTZX], pt3[PTZY]\r\n      ) = (\r\n        pt2xx, pt2xy,\r\n        pt2yx, pt2yy,\r\n        pt2zx, pt2zy\r\n      );\r\n      return pt3;\r\n    } else if (pt2zx == 0 && pt2zy == 0) {\r\n      (\r\n        pt3[PTXX], pt3[PTXY],\r\n        pt3[PTYX], pt3[PTYY],\r\n        pt3[PTZX], pt3[PTZY]\r\n      ) = (\r\n          pt1xx, pt1xy,\r\n          pt1yx, pt1yy,\r\n          pt1zx, pt1zy\r\n      );\r\n      return pt3;\r\n    }\r\n\r\n    (pt2yx, pt2yy) = _fq2mul(\r\n      pt2yx,\r\n      pt2yy,\r\n      pt1zx,\r\n      pt1zy); // U1 = y2 * z1\r\n    (pt3[PTYX], pt3[PTYY]) = _fq2mul(\r\n      pt1yx,\r\n      pt1yy,\r\n      pt2zx,\r\n      pt2zy); // U2 = y1 * z2\r\n    (pt2xx, pt2xy) = _fq2mul(\r\n      pt2xx,\r\n      pt2xy,\r\n      pt1zx,\r\n      pt1zy); // V1 = x2 * z1\r\n    (pt3[PTZX], pt3[PTZY]) = _fq2mul(\r\n      pt1xx,\r\n      pt1xy,\r\n      pt2zx,\r\n      pt2zy); // V2 = x1 * z2\r\n\r\n    if (pt2xx == pt3[PTZX] && pt2xy == pt3[PTZY]) {\r\n      if (pt2yx == pt3[PTYX] && pt2yy == pt3[PTYY]) {\r\n        (\r\n          pt3[PTXX], pt3[PTXY],\r\n          pt3[PTYX], pt3[PTYY],\r\n          pt3[PTZX], pt3[PTZY]\r\n        ) = _ecTwistDoubleJacobian(\r\n          pt1xx,\r\n          pt1xy,\r\n          pt1yx,\r\n          pt1yy,\r\n          pt1zx,\r\n          pt1zy);\r\n        return pt3;\r\n      }\r\n      (\r\n        pt3[PTXX], pt3[PTXY],\r\n        pt3[PTYX], pt3[PTYY],\r\n        pt3[PTZX], pt3[PTZY]\r\n        ) = (\r\n        1, 0,\r\n        1, 0,\r\n        0, 0\r\n        );\r\n      return pt3;\r\n    }\r\n\r\n    (pt2zx, pt2zy) = _fq2mul(\r\n      pt1zx,\r\n      pt1zy,\r\n      pt2zx,\r\n      pt2zy); // W = z1 * z2\r\n    (pt1xx, pt1xy) = _fq2sub(\r\n      pt2yx,\r\n      pt2yy,\r\n      pt3[PTYX],\r\n      pt3[PTYY]); // U = U1 - U2\r\n    (pt1yx, pt1yy) = _fq2sub(\r\n      pt2xx,\r\n      pt2xy,\r\n      pt3[PTZX],\r\n      pt3[PTZY]); // V = V1 - V2\r\n    (pt1zx, pt1zy) = _fq2mul(\r\n      pt1yx,\r\n      pt1yy,\r\n      pt1yx,\r\n      pt1yy); // V_squared = V * V\r\n    (pt2yx, pt2yy) = _fq2mul(\r\n      pt1zx,\r\n      pt1zy,\r\n      pt3[PTZX],\r\n      pt3[PTZY]); // V_squared_times_V2 = V_squared * V2\r\n    (pt1zx, pt1zy) = _fq2mul(\r\n      pt1zx,\r\n      pt1zy,\r\n      pt1yx,\r\n      pt1yy); // V_cubed = V * V_squared\r\n    (pt3[PTZX], pt3[PTZY]) = _fq2mul(\r\n      pt1zx,\r\n      pt1zy,\r\n      pt2zx,\r\n      pt2zy); // newz = V_cubed * W\r\n    (pt2xx, pt2xy) = _fq2mul(\r\n      pt1xx,\r\n      pt1xy,\r\n      pt1xx,\r\n      pt1xy); // U * U\r\n    (pt2xx, pt2xy) = _fq2mul(\r\n      pt2xx,\r\n      pt2xy,\r\n      pt2zx,\r\n      pt2zy); // U * U * W\r\n    (pt2xx, pt2xy) = _fq2sub(\r\n      pt2xx,\r\n      pt2xy,\r\n      pt1zx,\r\n      pt1zy); // U * U * W - V_cubed\r\n    (pt2zx, pt2zy) = _fq2muc(pt2yx, pt2yy, 2); // 2 * V_squared_times_V2\r\n    (pt2xx, pt2xy) = _fq2sub(\r\n      pt2xx,\r\n      pt2xy,\r\n      pt2zx,\r\n      pt2zy); // A = U * U * W - V_cubed - 2 * V_squared_times_V2\r\n    (pt3[PTXX], pt3[PTXY]) = _fq2mul(\r\n      pt1yx,\r\n      pt1yy,\r\n      pt2xx,\r\n      pt2xy); // newx = V * A\r\n    (pt1yx, pt1yy) = _fq2sub(\r\n      pt2yx,\r\n      pt2yy,\r\n      pt2xx,\r\n      pt2xy); // V_squared_times_V2 - A\r\n    (pt1yx, pt1yy) = _fq2mul(\r\n      pt1xx,\r\n      pt1xy,\r\n      pt1yx,\r\n      pt1yy); // U * (V_squared_times_V2 - A)\r\n    (pt1xx, pt1xy) = _fq2mul(\r\n      pt1zx,\r\n      pt1zy,\r\n      pt3[PTYX],\r\n      pt3[PTYY]); // V_cubed * U2\r\n    (pt3[PTYX], pt3[PTYY]) = _fq2sub(\r\n      pt1yx,\r\n      pt1yy,\r\n      pt1xx,\r\n      pt1xy); // newy = U * (V_squared_times_V2 - A) - V_cubed * U2\r\n  }\r\n\r\n  /**\r\n  * @notice Doubls a point in jacobian coordinates\r\n  * @param pt1xx Point x real coordinate\r\n  * @param pt1xy Point x imaginary coordinate\r\n  * @param pt1yx Point y real coordinate\r\n  * @param pt1yy Point y imaginary coordinate\r\n  * @param pt1zx Point z real coordinate\r\n  * @param pt1zy Point z imaginary coordinate\r\n  * @return pt2xx, pt2xy, pt2yx, pt2yy, pt2zx, pt2zy the coordinates of pt2 = 2*pt1\r\n  **/\r\n  function _ecTwistDoubleJacobian(\r\n    uint256 pt1xx,\r\n    uint256 pt1xy,\r\n    uint256 pt1yx,\r\n    uint256 pt1yy,\r\n    uint256 pt1zx,\r\n    uint256 pt1zy\r\n  )\r\n  internal\r\n  pure\r\n  returns (\r\n    uint256,\r\n    uint256,\r\n    uint256,\r\n    uint256,\r\n    uint256,\r\n    uint256\r\n  )\r\n  {\r\n    uint256[6] memory pt2;\r\n    (pt2[0], pt2[1]) = _fq2muc(pt1xx, pt1xy, 3); // 3 * x\r\n    (pt2[0], pt2[1]) = _fq2mul(\r\n      pt2[0],\r\n      pt2[1],\r\n      pt1xx,\r\n      pt1xy); // W = 3 * x * x\r\n    (pt1zx, pt1zy) = _fq2mul(\r\n      pt1yx,\r\n      pt1yy,\r\n      pt1zx,\r\n      pt1zy); // S = y * z\r\n    (pt2[2], pt2[3]) = _fq2mul(\r\n      pt1xx,\r\n      pt1xy,\r\n      pt1yx,\r\n      pt1yy); // x * y\r\n    (pt2[2], pt2[3]) = _fq2mul(\r\n      pt2[2],\r\n      pt2[3],\r\n      pt1zx,\r\n      pt1zy); // B = x * y * S\r\n    (pt1xx, pt1xy) = _fq2mul(\r\n      pt2[0],\r\n      pt2[1],\r\n      pt2[0],\r\n      pt2[1]); // W * W\r\n    (pt2[4], pt2[5]) = _fq2muc(pt2[2], pt2[3], 8); // 8 * B\r\n    (pt1xx, pt1xy) = _fq2sub(\r\n      pt1xx,\r\n      pt1xy,\r\n      pt2[4],\r\n      pt2[5]); // H = W * W - 8 * B\r\n    (pt2[4], pt2[5]) = _fq2mul(\r\n      pt1zx,\r\n      pt1zy,\r\n      pt1zx,\r\n      pt1zy); // S_squared = S * S\r\n    (pt2[2], pt2[3]) = _fq2muc(pt2[2], pt2[3], 4); // 4 * B\r\n    (pt2[2], pt2[3]) = _fq2sub(\r\n      pt2[2],\r\n      pt2[3],\r\n      pt1xx,\r\n      pt1xy); // 4 * B - H\r\n    (pt2[2], pt2[3]) = _fq2mul(\r\n      pt2[2],\r\n      pt2[3],\r\n      pt2[0],\r\n      pt2[1]); // W * (4 * B - H)\r\n    (pt2[0], pt2[1]) = _fq2muc(pt1yx, pt1yy, 8); // 8 * y\r\n    (pt2[0], pt2[1]) = _fq2mul(\r\n      pt2[0],\r\n      pt2[1],\r\n      pt1yx,\r\n      pt1yy); // 8 * y * y\r\n    (pt2[0], pt2[1]) = _fq2mul(\r\n      pt2[0],\r\n      pt2[1],\r\n      pt2[4],\r\n      pt2[5]); // 8 * y * y * S_squared\r\n    (pt2[2], pt2[3]) = _fq2sub(\r\n      pt2[2],\r\n      pt2[3],\r\n      pt2[0],\r\n      pt2[1]); // newy = W * (4 * B - H) - 8 * y * y * S_squared\r\n    (pt2[0], pt2[1]) = _fq2muc(pt1xx, pt1xy, 2); // 2 * H\r\n    (pt2[0], pt2[1]) = _fq2mul(\r\n      pt2[0],\r\n      pt2[1],\r\n      pt1zx,\r\n      pt1zy); // newx = 2 * H * S\r\n    (pt2[4], pt2[5]) = _fq2mul(\r\n      pt1zx,\r\n      pt1zy,\r\n      pt2[4],\r\n      pt2[5]); // S * S_squared\r\n    (pt2[4], pt2[5]) = _fq2muc(pt2[4], pt2[5], 8); // newz = 8 * S * S_squared\r\n\r\n    return (pt2[0], pt2[1], pt2[2], pt2[3], pt2[4], pt2[5]);\r\n  }\r\n\r\n  /**\r\n  * @notice Doubls a point in jacobian coordinates\r\n  * @param d scalar to multiply the point with\r\n  * @param pt1xx Point x real coordinate\r\n  * @param pt1xy Point x imaginary coordinate\r\n  * @param pt1yx Point y real coordinate\r\n  * @param pt1yy Point y imaginary coordinate\r\n  * @param pt1zx Point z real coordinate\r\n  * @param pt1zy Point z imaginary coordinate\r\n  * @return a point representing pt2 = d*pt1 in jacobian coordinates\r\n  **/\r\n  function _ecTwistMulJacobian(\r\n    uint256 d,\r\n    uint256 pt1xx,\r\n    uint256 pt1xy,\r\n    uint256 pt1yx,\r\n    uint256 pt1yy,\r\n    uint256 pt1zx,\r\n    uint256 pt1zy\r\n  ) internal pure returns (uint256[6] memory)\r\n  {\r\n    uint[6] memory pt2;\r\n    while (d != 0) {\r\n      if ((d & 1) != 0) {\r\n        pt2 = ecTwistAddJacobian(\r\n          pt2[PTXX],\r\n          pt2[PTXY],\r\n          pt2[PTYX],\r\n          pt2[PTYY],\r\n          pt2[PTZX],\r\n          pt2[PTZY],\r\n          pt1xx,\r\n          pt1xy,\r\n          pt1yx,\r\n          pt1yy,\r\n          pt1zx,\r\n          pt1zy\r\n        );\r\n      }\r\n      (pt1xx, pt1xy, pt1yx, pt1yy, pt1zx, pt1zy) = _ecTwistDoubleJacobian(\r\n        pt1xx,\r\n        pt1xy,\r\n        pt1yx,\r\n        pt1yy,\r\n        pt1zx,\r\n        pt1zy\r\n      );\r\n\r\n      d = d / 2;\r\n    }\r\n    return pt2;\r\n  }\r\n}",
  "sourcePath": "D:\\nxshen\\github\\contract_deploy\\contracts\\BN256G2.sol",
  "compiler": {
    "name": "solc",
    "version": "0.6.9+commit.3e3065ac.Emscripten.clang"
  },
  "schemaVersion": "3.4.3",
  "updatedAt": "2021-09-30T02:10:25.930Z",
  "devdoc": {
    "details": "Adaptation of https://github.com/musalbas/solidity-BN256G2 to 0.6.0",
    "methods": {
      "getFieldModulus()": {
        "returns": {
          "_0": "The field modulus"
        }
      }
    },
    "title": "Elliptic curve operations on twist points on bn256 (G2)"
  },
  "userdoc": {
    "methods": {
      "getFieldModulus()": {
        "notice": "Get the field modulus"
      }
    }
  }
}