{
  "contractName": "bprdqs",
  "abi": [
    {
      "inputs": [],
      "name": "testOURS",
      "outputs": [
        {
          "internalType": "bool",
          "name": "",
          "type": "bool"
        }
      ],
      "stateMutability": "nonpayable",
      "type": "function"
    }
  ],
  "bytecode": "0x60806040527f30644e72e131a029b85045b68181585d97816a916871ca8d3c208c16d87cfd476000556040518061018001604052807f02f9237295ca47bc8621941596b39c678eaa23ee728e277004670f822f5e459481526020017f040fc0cac571ae477880265d5cf5a523f2d85fd0fe8ad50e3ed7372c39f20a6d81526020017f2bdc8e594afa0b03b2307a96ec158e530d2c348e8092d5bf13d5c1cfdfe37c1081526020017f19af7ab6d60f7f71c7d24f78738a0398d5852df30235aecf713bb7301d64e65081526020017f1052c2da999227eaa015169cc81889c9b7d19492506159234156d8e64d9eaec081526020017f026b77fa28b81e14ee6ae41d23c832bcf202b792be9d816d3c8266dc11bc1da681526020017f21ca051c049db027c8a6b2d2449614e1e9b22b2223541713637f0c64b7a8c55181526020017f01b20d974e60974c19c50cbc176ee07f464e67b1fabdf4f4985c3ddf408e0e2581526020017f015863daf6bd3805c036e9f1d2a9f284dce8e098dbefcfd9411a6305b3b3a3a281526020017f025eae55cab796540e83bf06b83ae6a3956f5545a30c930be5f202cb6d2e5bd181526020017f04345e97e96bed5383165a963d1a3bdef48391a74bf5157ca6f4d824499edc2381526020017f1127a30eae56a1cebe9c4495aaadfedc8d45a5e5748d7ca7a72c2b14c5b24b3e815250600190600c61020a92919061021d565b5034801561021757600080fd5b50610282565b82600c810192821561024c579160200282015b8281111561024b578251825591602001919060010190610230565b5b509050610259919061025d565b5090565b61027f91905b8082111561027b576000816000905550600101610263565b5090565b90565b61051b806102916000396000f3fe608060405234801561001057600080fd5b506004361061002b5760003560e01c8063d6e8d9db14610030575b600080fd5b61003861004e565b604051610045919061048d565b60405180910390f35b60006100586103ba565b604051806040016040528060016000600c811061007157fe5b01548152602001600180600c811061008557fe5b015481525090506100946103d4565b6040518060400160405280604051806040016040528060016002600c81106100b857fe5b0154815260200160016003600c81106100cd57fe5b01548152508152602001604051806040016040528060016004600c81106100f057fe5b0154815260200160016005600c811061010557fe5b015481525081525090506101176103ba565b604051806040016040528060016006600c811061013057fe5b0154815260200160016007600c811061014557fe5b015481525090506101546103d4565b6040518060400160405280604051806040016040528060016008600c811061017857fe5b0154815260200160016009600c811061018d57fe5b0154815250815260200160405180604001604052806001600a600c81106101b057fe5b015481526020016001600b600c81106101c557fe5b015481525081525090506101db848484846101e4565b94505050505090565b60006101ef8561030d565b94506103036040518061018001604052808760000151815260200187602001518152602001866000015160006002811061022557fe5b60200201518152602001866000015160016002811061024057fe5b60200201518152602001866020015160006002811061025b57fe5b60200201518152602001866020015160016002811061027657fe5b60200201518152602001856000015181526020018560200151815260200184600001516000600281106102a557fe5b6020020151815260200184600001516001600281106102c057fe5b6020020151815260200184602001516000600281106102db57fe5b6020020151815260200184602001516001600281106102f657fe5b602002015181525061033d565b9050949350505050565b6103156103ba565b6040518060400160405280836000015181526020018360200151600054038152509050919050565b60006103476103fa565b600060208261018086600060086107d05a03f190508061039c576040517f08c379a0000000000000000000000000000000000000000000000000000000008152600401610393906104a8565b60405180910390fd5b6001826000600181106103ab57fe5b60200201511492505050919050565b604051806040016040528060008152602001600081525090565b60405180604001604052806103e761041c565b81526020016103f461041c565b81525090565b6040518060200160405280600190602082028036833780820191505090505090565b6040518060400160405280600290602082028036833780820191505090505090565b610447816104d9565b82525050565b600061045a601d836104c8565b91507f656c6c69707469632063757276652070616972696e67206661696c65640000006000830152602082019050919050565b60006020820190506104a2600083018461043e565b92915050565b600060208201905081810360008301526104c18161044d565b9050919050565b600082825260208201905092915050565b6000811515905091905056fea264697066735822122065fee7416b9148c19cae555e197dc4751b488762b49b433db3d1a9be16f96bbd64736f6c63430006090033",
  "immutableReferences": {},
  "source": "pragma solidity >0.6.8;\r\npragma experimental ABIEncoderV2;\r\n\r\nimport \"./BN256G1.sol\";\r\nimport \"./BN256G2.sol\";\r\n\r\ncontract bprdqs{\r\n    \r\n    // The prime q in the base field F_q for G1 and G2\r\n    uint256 q = 21888242871839275222246405745257275088696311157297823662689037894645226208583;\r\n    \r\n    struct G1Point {\r\n        uint256 x;\r\n        uint256 y;\r\n    }\r\n    \r\n    // Encoding of field elements is: X[0] * z + X[1]\r\n    struct G2Point {\r\n        uint256[2] x;\r\n        uint256[2] y;\r\n    }\r\n    \r\n    /// @return the generator of G1\r\n    function get_P1() internal pure returns (G1Point memory) {\r\n        return G1Point(1,2);\r\n    }\r\n    \r\n    /// @return the generator of G2\r\n    function get_P2() internal pure returns (G2Point memory) { // RE+IM\r\n        return G2Point(\r\n            [11559732032986387107991004021392285783925812861821192530917403151452391805634,\r\n            10857046999023057135944570762232829481370756359578518086990519993285655852781],\r\n\r\n            [4082367875863433681332203403145435568316851327593401208105741076214120093531,\r\n            8495653923123431417604973247489272438418190587263600148770280649306958101930]\r\n        );\r\n    }\r\n\r\n    // the parameters used in our scheme\r\n    uint256[12] data_ours = [1344815266627152914463283187279845014755278383291928694753353909171541394836,1837084702305838889412151982805224136594203407900595612401995120507341638253,19839141298644168206850811700572802443008367594493968284253945076485445614608,11617866393225684691713609743008868608607314573997975980766333001837012379216,7383231868876646222195468749902527960069588114973748733017148496746406391488,1094506385187987980671121129049916252537269967468799114882808093616436420006,15283262374429383375304170429218118790700409077486321569696264151497731261777,766905428022367800974453098558968609485389762749412342090187280333532958245,608484566425133779458653715128378710773148367524777651843586825221680898978,1071912538064115488515953769896709270070486935857413703010556424607006350289,1901780301392249165586607880197462042528159087641747558549477366011048942627,7759350841895642906299761855054985662846019555610802689508201383244709645118];\r\n    \r\n    G1Point Tioj;\r\n    G2Point Ci1;\r\n    G1Point Ci2;\r\n    G1Point Tjio;\r\n    G2Point Cj1;\r\n    G1Point Cj2;\r\n    G1Point ICi;\r\n    G1Point ICj;\r\n    \r\n    // the function of equality test uesd in our scheme\r\n    function testOURS()public returns(bool)\r\n    {\r\n        G1Point memory TCi = G1Point(data_ours[0], data_ours[1]);\r\n        G2Point memory Cj1 = G2Point([data_ours[2],data_ours[3]],[data_ours[4],data_ours[5]]);\r\n        G1Point memory TCj = G1Point(data_ours[6], data_ours[7]);\r\n        G2Point memory Ci1 = G2Point([data_ours[8],data_ours[9]],[data_ours[10],data_ours[11]]);\r\n        \r\n        return pairing_check(TCi, Cj1, TCj, Ci1);\r\n    }\r\n    \r\n    // 以下的 functions 可以在 smart contract 上進行定義在橢圓曲線上的運算，參考用\r\n    function g2add(G2Point memory a, G2Point memory b)internal view returns(G2Point memory r)\r\n    {\r\n        (uint256 x_im, uint256 x_re, uint256 y_im, uint256 y_re) = BN256G2.ecTwistAdd(a.x[1], a.x[0], a.y[1], a.y[0], b.x[1], b.x[0], b.y[1], b.y[0]);\r\n        return G2Point([x_re, x_im], [y_re, y_im]);\r\n    }\r\n    \r\n    function g2mul(uint256 s, G2Point memory a)internal view returns(G2Point memory r)\r\n    {\r\n        (uint256 x_im, uint256 x_re, uint256 y_im, uint256 y_re) = BN256G2.ecTwistMul(s, a.x[1], a.x[0], a.y[1], a.y[0]);\r\n        return G2Point([x_re, x_im], [y_re, y_im]);\r\n    }\r\n    \r\n    function g1add(G1Point memory a, G1Point memory b)internal returns(G1Point memory r)\r\n    {\r\n        (uint256 x, uint256 y) = BN256G1.add([a.x, a.y, b.x, b.y]);\r\n        return G1Point(x, y);\r\n    }\r\n    \r\n    function g1mul(uint256 s, G1Point memory a)internal returns(G1Point memory r)\r\n    {\r\n        (uint256 x, uint256 y) = BN256G1.multiply([a.x, a.y, s]);\r\n        return G1Point(x, y);\r\n    }\r\n    \r\n    function g1negate(G1Point memory a) internal view returns(G1Point memory)\r\n    {\r\n        \r\n        return G1Point(a.x, q-a.y);\r\n    }\r\n    \r\n    function g2negate(G2Point memory a) internal view returns(G2Point memory)\r\n    {\r\n        \r\n        return G2Point(\r\n            [a.x[0], a.x[1]],\r\n            [q - a.y[0], q - a.y[1]]);\r\n    }\r\n    \r\n    function pairing_check(G1Point memory P, G2Point memory Q, G1Point memory R, G2Point memory S)internal returns(bool){\r\n        P = g1negate(P);\r\n        return BN256G1.bn256CheckPairing([P.x, P.y, Q.x[0], Q.x[1], Q.y[0], Q.y[1], R.x, R.y, S.x[0], S.x[1], S.y[0], S.y[1]]);\r\n    }\r\n    \r\n}\r\n",
  "sourcePath": "D:\\nxshen\\github\\contract_deploy\\contracts\\BPRDQS.sol",
  "compiler": {
    "name": "solc",
    "version": "0.6.9+commit.3e3065ac.Emscripten.clang"
  },
  "schemaVersion": "3.4.3",
  "updatedAt": "2021-09-30T02:22:33.910Z",
  "networkType": "ethereum",
  "devdoc": {
    "methods": {}
  },
  "userdoc": {
    "methods": {}
  }
}