{
  "contractName": "bpreet",
  "abi": [
    {
      "inputs": [],
      "name": "testBPREET1",
      "outputs": [
        {
          "internalType": "bool",
          "name": "",
          "type": "bool"
        }
      ],
      "stateMutability": "nonpayable",
      "type": "function"
    },
    {
      "inputs": [
        {
          "internalType": "uint8[1024]",
          "name": "a",
          "type": "uint8[1024]"
        },
        {
          "internalType": "uint8[1024]",
          "name": "b",
          "type": "uint8[1024]"
        }
      ],
      "name": "xor",
      "outputs": [
        {
          "internalType": "uint8[1024]",
          "name": "r",
          "type": "uint8[1024]"
        }
      ],
      "stateMutability": "nonpayable",
      "type": "function"
    }
  ],
  "bytecode": "0x60806040527f30644e72e131a029b85045b68181585d97816a916871ca8d3c208c16d87cfd476000556040518061020001604052807f0464114496773dcde12acf22543fa6610a72feaeb4ada975c59e81050db344fc81526020017f14fac34bc9277d3c3d57cfbe08b3e88082ef50624dc9a7a55117f27e737cc27b81526020017f136a54c9d076c9014f7f0960d970b8d0e6d52942acfccda8a1a2d81b2976a0b281526020017f1df629ceaa921525a5ce3a65fe334ff54bba0f5f45d29664eec58b92510f523a81526020017f1d96846a8590a7a4e28cdfe2e33c6b134321ac065faf7517952f87862143543e81526020017f08eab034994282fc7b95e53209ef0fd6dd1dd3b1077f19e912201981085d7f0081526020017f215366d7b24e7200be21049a87053de025fa24fd0114ca435d3015a93fcff40981526020017f0c307f125e146fb8b19107e67c3f2a6bdd866196ab0fb7a0ffe50a7c4ba03c7181526020017f28d0d538ce1c423be363ba1cf4ebd007b6f46bc5edc63125ec3da2132725b9ac81526020017f1cd6c1d8ac9ea74427625bfd51cac52cb12b177ff2cf46663e6563d2547c75ba81526020017f1e1165dac5280caef4b9195f93e9be28b38d4cd5d63136ed2cbce59cbb54184881526020017f20a404b34d4e18dd9912ee5b852fdd6c513f97231e6eca5730b216b1fd5979fe81526020017f0f1e2fe114232acfc73825530541360bc5f66fce184d7b033a8095d77751fadb81526020017f0d2899d3612fe46f11bf9844248db4bbbde2647c6d49a19fcc2f164d9241714c81526020017f0291dfe62564403288d39d88382be16a5d477c680054dfdc203839235ad2c73081526020017f1364e978131e96a8f5c9942963a092e3388efaf5e5bcfb9b3ac39f5c1b0fe4cc8152506001906010620002a4929190620054da565b506040518061018001604052807f02f9237295ca47bc8621941596b39c678eaa23ee728e277004670f822f5e459481526020017f040fc0cac571ae477880265d5cf5a523f2d85fd0fe8ad50e3ed7372c39f20a6d81526020017f2bdc8e594afa0b03b2307a96ec158e530d2c348e8092d5bf13d5c1cfdfe37c1081526020017f19af7ab6d60f7f71c7d24f78738a0398d5852df30235aecf713bb7301d64e65081526020017f1052c2da999227eaa015169cc81889c9b7d19492506159234156d8e64d9eaec081526020017f026b77fa28b81e14ee6ae41d23c832bcf202b792be9d816d3c8266dc11bc1da681526020017f21ca051c049db027c8a6b2d2449614e1e9b22b2223541713637f0c64b7a8c55181526020017f01b20d974e60974c19c50cbc176ee07f464e67b1fabdf4f4985c3ddf408e0e2581526020017f015863daf6bd3805c036e9f1d2a9f284dce8e098dbefcfd9411a6305b3b3a3a281526020017f025eae55cab796540e83bf06b83ae6a3956f5545a30c930be5f202cb6d2e5bd181526020017f04345e97e96bed5383165a963d1a3bdef48391a74bf5157ca6f4d824499edc2381526020017f1127a30eae56a1cebe9c4495aaadfedc8d45a5e5748d7ca7a72c2b14c5b24b3e815250601190600c620004899291906200551f565b50604051806180000160405280600060ff168152602001600160ff168152602001600160ff168152602001600160ff168152602001600160ff168152602001600060ff168152602001600060ff168152602001600160ff168152602001600060ff168152602001600160ff168152602001600060ff168152602001600160ff168152602001600060ff168152602001600060ff168152602001600060ff168152602001600160ff168152602001600160ff168152602001600160ff168152602001600060ff168152602001600160ff168152602001600060ff168152602001600160ff168152602001600160ff168152602001600060ff168152602001600160ff168152602001600060ff168152602001600060ff168152602001600060ff168152602001600060ff168152602001600160ff168152602001600060ff168152602001600060ff168152602001600060ff168152602001600160ff168152602001600160ff168152602001600160ff168152602001600160ff168152602001600160ff168152602001600060ff168152602001600060ff168152602001600160ff168152602001600160ff168152602001600060ff168152602001600060ff168152602001600060ff168152602001600160ff168152602001600060ff168152602001600160ff168152602001600060ff168152602001600060ff168152602001600160ff168152602001600060ff168152602001600060ff168152602001600060ff168152602001600160ff168152602001600060ff168152602001600060ff168152602001600160ff168152602001600160ff168152602001600160ff168152602001600060ff168152602001600160ff168152602001600060ff168152602001600160ff168152602001600160ff168152602001600160ff168152602001600160ff168152602001600060ff168152602001600060ff168152602001600160ff168152602001600060ff168152602001600160ff168152602001600160ff168152602001600060ff168152602001600060ff168152602001600060ff168152602001600060ff168152602001600160ff168152602001600160ff168152602001600060ff168152602001600160ff168152602001600060ff168152602001600060ff168152602001600060ff168152602001600060ff168152602001600060ff168152602001600160ff168152602001600160ff168152602001600160ff168152602001600060ff168152602001600060ff168152602001600060ff168152602001600060ff168152602001600060ff168152602001600160ff168152602001600060ff168152602001600160ff168152602001600160ff168152602001600160ff168152602001600160ff168152602001600160ff168152602001600160ff168152602001600160ff168152602001600060ff168152602001600160ff168152602001600160ff168152602001600060ff168152602001600160ff168152602001600160ff168152602001600060ff168152602001600160ff168152602001600060ff168152602001600160ff168152602001600060ff168152602001600060ff168152602001600060ff168152602001600160ff168152602001600160ff168152602001600160ff168152602001600060ff168152602001600160ff168152602001600160ff168152602001600160ff168152602001600160ff168152602001600160ff168152602001600160ff168152602001600060ff168152602001600160ff168152602001600160ff168152602001600060ff168152602001600160ff168152602001600160ff168152602001600060ff168152602001600160ff168152602001600160ff168152602001600160ff168152602001600060ff168152602001600060ff168152602001600160ff168152602001600060ff168152602001600060ff168152602001600160ff168152602001600160ff168152602001600160ff168152602001600160ff168152602001600060ff168152602001600060ff168152602001600060ff168152602001600060ff168152602001600060ff168152602001600160ff168152602001600060ff168152602001600160ff168152602001600060ff168152602001600060ff168152602001600160ff168152602001600160ff168152602001600060ff168152602001600160ff168152602001600060ff168152602001600160ff168152602001600060ff168152602001600160ff168152602001600160ff168152602001600060ff168152602001600160ff168152602001600060ff168152602001600160ff168152602001600160ff168152602001600160ff168152602001600060ff168152602001600160ff168152602001600060ff168152602001600160ff168152602001600160ff168152602001600160ff168152602001600160ff168152602001600060ff168152602001600160ff168152602001600060ff168152602001600160ff168152602001600060ff168152602001600160ff168152602001600160ff168152602001600060ff168152602001600060ff168152602001600160ff168152602001600160ff168152602001600160ff168152602001600160ff168152602001600160ff168152602001600160ff168152602001600160ff168152602001600160ff168152602001600060ff168152602001600160ff168152602001600160ff168152602001600160ff168152602001600060ff168152602001600060ff168152602001600060ff168152602001600060ff168152602001600160ff168152602001600160ff168152602001600060ff168152602001600160ff168152602001600160ff168152602001600060ff168152602001600160ff168152602001600160ff168152602001600160ff168152602001600060ff168152602001600160ff168152602001600160ff168152602001600160ff168152602001600060ff168152602001600160ff168152602001600160ff168152602001600060ff168152602001600160ff168152602001600060ff168152602001600160ff168152602001600060ff168152602001600160ff168152602001600060ff168152602001600060ff168152602001600060ff168152602001600060ff168152602001600160ff168152602001600060ff168152602001600160ff168152602001600160ff168152602001600160ff168152602001600060ff168152602001600160ff168152602001600160ff168152602001600060ff168152602001600060ff168152602001600160ff168152602001600160ff168152602001600060ff168152602001600160ff168152602001600160ff168152602001600160ff168152602001600060ff168152602001600160ff168152602001600160ff168152602001600160ff168152602001600160ff168152602001600060ff168152602001600160ff168152602001600160ff168152602001600060ff168152602001600060ff168152602001600060ff168152602001600060ff168152602001600060ff168152602001600160ff168152602001600060ff168152602001600160ff168152602001600160ff168152602001600160ff168152602001600160ff168152602001600060ff168152602001600060ff168152602001600160ff168152602001600160ff168152602001600160ff168152602001600160ff168152602001600060ff168152602001600060ff168152602001600160ff168152602001600060ff168152602001600160ff168152602001600160ff168152602001600060ff168152602001600160ff168152602001600160ff168152602001600060ff168152602001600060ff168152602001600060ff168152602001600060ff168152602001600160ff168152602001600060ff168152602001600160ff168152602001600160ff168152602001600160ff168152602001600060ff168152602001600060ff168152602001600060ff168152602001600060ff168152602001600160ff168152602001600160ff168152602001600060ff168152602001600060ff168152602001600160ff168152602001600160ff168152602001600060ff168152602001600060ff168152602001600160ff168152602001600060ff168152602001600060ff168152602001600060ff168152602001600060ff168152602001600160ff168152602001600060ff168152602001600060ff168152602001600160ff168152602001600160ff168152602001600060ff168152602001600060ff168152602001600160ff168152602001600060ff168152602001600160ff168152602001600060ff168152602001600160ff168152602001600060ff168152602001600160ff168152602001600160ff168152602001600060ff168152602001600160ff168152602001600060ff168152602001600060ff168152602001600060ff168152602001600060ff168152602001600060ff168152602001600060ff168152602001600060ff168152602001600060ff168152602001600060ff168152602001600160ff168152602001600160ff168152602001600060ff168152602001600060ff168152602001600160ff168152602001600160ff168152602001600160ff168152602001600160ff168152602001600060ff168152602001600160ff168152602001600160ff168152602001600060ff168152602001600060ff168152602001600160ff168152602001600060ff168152602001600060ff168152602001600060ff168152602001600160ff168152602001600160ff168152602001600160ff168152602001600060ff168152602001600060ff168152602001600160ff168152602001600160ff168152602001600160ff168152602001600160ff168152602001600160ff168152602001600160ff168152602001600160ff168152602001600060ff168152602001600160ff168152602001600160ff168152602001600160ff168152602001600160ff168152602001600160ff168152602001600060ff168152602001600060ff168152602001600060ff168152602001600160ff168152602001600060ff168152602001600160ff168152602001600160ff168152602001600060ff168152602001600160ff168152602001600060ff168152602001600060ff168152602001600060ff168152602001600160ff168152602001600160ff168152602001600160ff168152602001600060ff168152602001600160ff168152602001600160ff168152602001600160ff168152602001600060ff168152602001600160ff168152602001600060ff168152602001600160ff168152602001600060ff168152602001600060ff168152602001600060ff168152602001600060ff168152602001600060ff168152602001600060ff168152602001600060ff168152602001600160ff168152602001600160ff168152602001600160ff168152602001600160ff168152602001600060ff168152602001600060ff168152602001600060ff168152602001600060ff168152602001600160ff168152602001600060ff168152602001600060ff168152602001600060ff168152602001600160ff168152602001600160ff168152602001600160ff168152602001600060ff168152602001600060ff168152602001600160ff168152602001600060ff168152602001600060ff168152602001600160ff168152602001600160ff168152602001600160ff168152602001600160ff168152602001600160ff168152602001600160ff168152602001600160ff168152602001600060ff168152602001600060ff168152602001600160ff168152602001600160ff168152602001600160ff168152602001600060ff168152602001600060ff168152602001600060ff168152602001600060ff168152602001600160ff168152602001600060ff168152602001600160ff168152602001600060ff168152602001600060ff168152602001600160ff168152602001600060ff168152602001600060ff168152602001600160ff168152602001600060ff168152602001600160ff168152602001600160ff168152602001600060ff168152602001600160ff168152602001600060ff168152602001600160ff168152602001600160ff168152602001600060ff168152602001600160ff168152602001600160ff168152602001600160ff168152602001600160ff168152602001600060ff168152602001600060ff168152602001600160ff168152602001600160ff168152602001600060ff168152602001600160ff168152602001600160ff168152602001600160ff168152602001600160ff168152602001600060ff168152602001600060ff168152602001600060ff168152602001600060ff168152602001600160ff168152602001600060ff168152602001600160ff168152602001600060ff168152602001600160ff168152602001600160ff168152602001600160ff168152602001600060ff168152602001600160ff168152602001600160ff168152602001600060ff168152602001600160ff168152602001600060ff168152602001600060ff168152602001600060ff168152602001600060ff168152602001600160ff168152602001600060ff168152602001600160ff168152602001600160ff168152602001600160ff168152602001600160ff168152602001600160ff168152602001600160ff168152602001600160ff168152602001600160ff168152602001600160ff168152602001600160ff168152602001600060ff168152602001600160ff168152602001600060ff168152602001600060ff168152602001600160ff168152602001600160ff168152602001600160ff168152602001600160ff168152602001600160ff168152602001600160ff168152602001600160ff168152602001600160ff168152602001600160ff168152602001600160ff168152602001600060ff168152602001600160ff168152602001600160ff168152602001600160ff168152602001600060ff168152602001600160ff168152602001600160ff168152602001600160ff168152602001600160ff168152602001600160ff168152602001600060ff168152602001600060ff168152602001600160ff168152602001600160ff168152602001600160ff168152602001600160ff168152602001600160ff168152602001600060ff168152602001600160ff168152602001600060ff168152602001600160ff168152602001600160ff168152602001600160ff168152602001600060ff168152602001600160ff168152602001600060ff168152602001600060ff168152602001600060ff168152602001600060ff168152602001600160ff168152602001600160ff168152602001600160ff168152602001600160ff168152602001600060ff168152602001600060ff168152602001600060ff168152602001600060ff168152602001600160ff168152602001600160ff168152602001600060ff168152602001600060ff168152602001600060ff168152602001600060ff168152602001600160ff168152602001600160ff168152602001600160ff168152602001600160ff168152602001600060ff168152602001600160ff168152602001600160ff168152602001600060ff168152602001600160ff168152602001600060ff168152602001600160ff168152602001600160ff168152602001600160ff168152602001600160ff168152602001600060ff168152602001600160ff168152602001600060ff168152602001600160ff168152602001600060ff168152602001600060ff168152602001600060ff168152602001600060ff168152602001600060ff168152602001600160ff168152602001600160ff168152602001600160ff168152602001600160ff168152602001600160ff168152602001600160ff168152602001600060ff168152602001600160ff168152602001600160ff168152602001600060ff168152602001600060ff168152602001600060ff168152602001600160ff168152602001600160ff168152602001600160ff168152602001600160ff168152602001600060ff168152602001600060ff168152602001600160ff168152602001600160ff168152602001600060ff168152602001600060ff168152602001600060ff168152602001600160ff168152602001600060ff168152602001600060ff168152602001600060ff168152602001600160ff168152602001600060ff168152602001600060ff168152602001600160ff168152602001600160ff168152602001600060ff168152602001600060ff168152602001600160ff168152602001600160ff168152602001600060ff168152602001600160ff168152602001600060ff168152602001600060ff168152602001600160ff168152602001600160ff168152602001600060ff168152602001600160ff168152602001600060ff168152602001600160ff168152602001600160ff168152602001600060ff168152602001600060ff168152602001600160ff168152602001600060ff168152602001600160ff168152602001600060ff168152602001600060ff168152602001600160ff168152602001600160ff168152602001600160ff168152602001600160ff168152602001600060ff168152602001600060ff168152602001600060ff168152602001600060ff168152602001600160ff168152602001600060ff168152602001600060ff168152602001600160ff168152602001600160ff168152602001600160ff168152602001600060ff168152602001600160ff168152602001600160ff168152602001600060ff168152602001600060ff168152602001600060ff168152602001600060ff168152602001600160ff168152602001600060ff168152602001600060ff168152602001600060ff168152602001600160ff168152602001600060ff168152602001600160ff168152602001600060ff168152602001600060ff168152602001600060ff168152602001600160ff168152602001600060ff168152602001600160ff168152602001600060ff168152602001600060ff168152602001600060ff168152602001600160ff168152602001600060ff168152602001600160ff168152602001600060ff168152602001600160ff168152602001600060ff168152602001600060ff168152602001600060ff168152602001600160ff168152602001600060ff168152602001600160ff168152602001600060ff168152602001600060ff168152602001600060ff168152602001600060ff168152602001600160ff168152602001600060ff168152602001600060ff168152602001600160ff168152602001600160ff168152602001600160ff168152602001600160ff168152602001600060ff168152602001600160ff168152602001600060ff168152602001600060ff168152602001600160ff168152602001600060ff168152602001600060ff168152602001600060ff168152602001600060ff168152602001600060ff168152602001600160ff168152602001600060ff168152602001600060ff168152602001600160ff168152602001600060ff168152602001600060ff168152602001600060ff168152602001600060ff168152602001600060ff168152602001600160ff168152602001600160ff168152602001600160ff168152602001600160ff168152602001600060ff168152602001600160ff168152602001600060ff168152602001600160ff168152602001600060ff168152602001600060ff168152602001600160ff168152602001600160ff168152602001600060ff168152602001600160ff168152602001600060ff168152602001600060ff168152602001600060ff168152602001600060ff168152602001600060ff168152602001600060ff168152602001600160ff168152602001600060ff168152602001600060ff168152602001600160ff168152602001600060ff168152602001600060ff168152602001600060ff168152602001600160ff168152602001600060ff168152602001600160ff168152602001600160ff168152602001600160ff168152602001600160ff168152602001600060ff168152602001600060ff168152602001600060ff168152602001600160ff168152602001600160ff168152602001600060ff168152602001600160ff168152602001600060ff168152602001600160ff168152602001600060ff168152602001600160ff168152602001600060ff168152602001600060ff168152602001600160ff168152602001600060ff168152602001600060ff168152602001600060ff168152602001600160ff168152602001600160ff168152602001600060ff168152602001600060ff168152602001600160ff168152602001600060ff168152602001600160ff168152602001600060ff168152602001600160ff168152602001600060ff168152602001600160ff168152602001600060ff168152602001600060ff168152602001600160ff168152602001600060ff168152602001600160ff168152602001600160ff168152602001600160ff168152602001600060ff168152602001600160ff168152602001600160ff168152602001600060ff168152602001600160ff168152602001600160ff168152602001600160ff168152602001600160ff168152602001600160ff168152602001600160ff168152602001600060ff168152602001600160ff168152602001600160ff168152602001600060ff168152602001600160ff168152602001600160ff168152602001600060ff168152602001600060ff168152602001600060ff168152602001600060ff168152602001600060ff168152602001600160ff168152602001600060ff168152602001600060ff168152602001600160ff168152602001600060ff168152602001600060ff168152602001600060ff168152602001600060ff168152602001600060ff168152602001600160ff168152602001600060ff168152602001600160ff168152602001600160ff168152602001600160ff168152602001600060ff168152602001600060ff168152602001600160ff168152602001600160ff168152602001600160ff168152602001600060ff168152602001600060ff168152602001600060ff168152602001600060ff168152602001600060ff168152602001600060ff168152602001600160ff168152602001600160ff168152602001600060ff168152602001600160ff168152602001600160ff168152602001600060ff168152602001600160ff168152602001600060ff168152602001600160ff168152602001600060ff168152602001600060ff168152602001600060ff168152602001600160ff168152602001600160ff168152602001600160ff168152602001600160ff168152602001600060ff168152602001600160ff168152602001600060ff168152602001600160ff168152602001600060ff168152602001600160ff168152602001600060ff168152602001600060ff168152602001600160ff168152602001600060ff168152602001600160ff168152602001600160ff168152602001600060ff168152602001600060ff168152602001600160ff168152602001600160ff168152602001600160ff168152602001600060ff168152602001600160ff168152602001600160ff168152602001600160ff168152602001600160ff168152602001600160ff168152602001600060ff168152602001600160ff168152602001600060ff168152602001600060ff168152602001600060ff168152602001600060ff168152602001600160ff168152602001600060ff168152602001600060ff168152602001600060ff168152602001600160ff168152602001600160ff168152602001600160ff168152602001600060ff168152602001600160ff168152602001600060ff168152602001600060ff168152602001600160ff168152602001600060ff168152602001600160ff168152602001600160ff168152602001600060ff168152602001600060ff168152602001600160ff168152602001600160ff168152602001600060ff168152602001600160ff168152602001600160ff168152602001600160ff168152602001600160ff168152602001600060ff168152602001600160ff168152602001600160ff168152602001600060ff168152602001600160ff168152602001600160ff168152602001600160ff168152602001600160ff168152602001600060ff168152602001600160ff168152602001600160ff168152602001600160ff168152602001600060ff168152602001600060ff168152602001600060ff168152602001600160ff168152602001600060ff168152602001600060ff168152602001600160ff168152602001600060ff168152602001600160ff168152602001600060ff168152602001600160ff168152602001600060ff168152602001600060ff168152602001600160ff168152602001600060ff168152602001600060ff168152602001600160ff168152602001600160ff168152602001600160ff168152602001600160ff168152602001600060ff168152602001600160ff168152602001600160ff168152602001600060ff168152602001600060ff168152602001600160ff168152602001600160ff168152602001600160ff168152602001600060ff168152602001600060ff168152602001600160ff168152602001600060ff168152602001600160ff168152602001600060ff168152602001600060ff168152602001600060ff168152602001600160ff168152602001600060ff168152602001600160ff168152602001600160ff168152602001600060ff168152602001600160ff168152602001600060ff168152602001600060ff168152602001600160ff168152602001600060ff168152602001600060ff168152602001600160ff168152602001600160ff168152602001600160ff168152602001600160ff168152602001600060ff168152602001600060ff168152602001600060ff168152602001600160ff168152602001600060ff168152602001600160ff168152602001600060ff168152602001600160ff168152602001600160ff168152602001600160ff168152602001600160ff168152602001600060ff168152602001600060ff168152602001600160ff168152602001600060ff168152602001600060ff168152602001600060ff168152602001600060ff168152602001600160ff168152602001600160ff168152602001600060ff168152602001600160ff168152602001600160ff168152602001600160ff168152602001600160ff168152602001600160ff168152602001600060ff168152602001600060ff168152602001600060ff168152602001600160ff168152602001600160ff168152602001600160ff168152602001600160ff168152602001600160ff168152602001600060ff168152602001600160ff168152602001600160ff168152602001600160ff168152602001600160ff168152602001600160ff168152602001600160ff168152602001600160ff168152602001600060ff168152602001600060ff168152602001600060ff168152602001600160ff168152602001600060ff168152602001600060ff168152602001600160ff168152602001600060ff168152602001600060ff168152602001600060ff168152602001600160ff168152602001600060ff168152602001600160ff168152602001600060ff168152602001600060ff168152602001600060ff168152602001600060ff168152602001600160ff168152602001600160ff168152602001600160ff168152602001600160ff168152602001600060ff168152602001600160ff168152602001600160ff168152602001600160ff168152602001600160ff168152602001600060ff168152602001600060ff168152602001600160ff168152602001600060ff1681525060319061040062002ca792919062005564565b50604051806180000160405280600060ff168152602001600160ff168152602001600160ff168152602001600060ff168152602001600160ff168152602001600060ff168152602001600160ff168152602001600160ff168152602001600160ff168152602001600160ff168152602001600160ff168152602001600160ff168152602001600060ff168152602001600060ff168152602001600060ff168152602001600060ff168152602001600060ff168152602001600060ff168152602001600160ff168152602001600060ff168152602001600060ff168152602001600060ff168152602001600060ff168152602001600060ff168152602001600060ff168152602001600160ff168152602001600160ff168152602001600160ff168152602001600060ff168152602001600160ff168152602001600160ff168152602001600160ff168152602001600160ff168152602001600060ff168152602001600160ff168152602001600160ff168152602001600060ff168152602001600160ff168152602001600160ff168152602001600060ff168152602001600160ff168152602001600160ff168152602001600160ff168152602001600060ff168152602001600060ff168152602001600060ff168152602001600160ff168152602001600060ff168152602001600160ff168152602001600060ff168152602001600160ff168152602001600160ff168152602001600160ff168152602001600160ff168152602001600160ff168152602001600160ff168152602001600060ff168152602001600060ff168152602001600160ff168152602001600160ff168152602001600060ff168152602001600060ff168152602001600060ff168152602001600160ff168152602001600060ff168152602001600060ff168152602001600160ff168152602001600060ff168152602001600160ff168152602001600160ff168152602001600060ff168152602001600160ff168152602001600160ff168152602001600060ff168152602001600060ff168152602001600160ff168152602001600060ff168152602001600060ff168152602001600160ff168152602001600060ff168152602001600160ff168152602001600060ff168152602001600160ff168152602001600060ff168152602001600060ff168152602001600060ff168152602001600160ff168152602001600160ff168152602001600060ff168152602001600060ff168152602001600060ff168152602001600060ff168152602001600160ff168152602001600160ff168152602001600060ff168152602001600060ff168152602001600160ff168152602001600160ff168152602001600160ff168152602001600060ff168152602001600160ff168152602001600160ff168152602001600160ff168152602001600160ff168152602001600060ff168152602001600060ff168152602001600160ff168152602001600060ff168152602001600160ff168152602001600160ff168152602001600160ff168152602001600060ff168152602001600160ff168152602001600060ff168152602001600060ff168152602001600060ff168152602001600060ff168152602001600160ff168152602001600060ff168152602001600160ff168152602001600060ff168152602001600160ff168152602001600160ff168152602001600160ff168152602001600160ff168152602001600160ff168152602001600160ff168152602001600160ff168152602001600060ff168152602001600060ff168152602001600060ff168152602001600160ff168152602001600060ff168152602001600160ff168152602001600160ff168152602001600160ff168152602001600160ff168152602001600160ff168152602001600060ff168152602001600060ff168152602001600060ff168152602001600160ff168152602001600060ff168152602001600060ff168152602001600060ff168152602001600060ff168152602001600160ff168152602001600060ff168152602001600160ff168152602001600060ff168152602001600160ff168152602001600060ff168152602001600060ff168152602001600160ff168152602001600060ff168152602001600060ff168152602001600160ff168152602001600060ff168152602001600160ff168152602001600160ff168152602001600060ff168152602001600160ff168152602001600160ff168152602001600060ff168152602001600060ff168152602001600160ff168152602001600160ff168152602001600160ff168152602001600060ff168152602001600160ff168152602001600060ff168152602001600060ff168152602001600160ff168152602001600160ff168152602001600160ff168152602001600160ff168152602001600060ff168152602001600160ff168152602001600060ff168152602001600160ff168152602001600060ff168152602001600060ff168152602001600060ff168152602001600160ff168152602001600060ff168152602001600060ff168152602001600160ff168152602001600160ff168152602001600060ff168152602001600060ff168152602001600060ff168152602001600060ff168152602001600060ff168152602001600060ff168152602001600160ff168152602001600060ff168152602001600060ff168152602001600060ff168152602001600160ff168152602001600160ff168152602001600060ff168152602001600160ff168152602001600160ff168152602001600160ff168152602001600060ff168152602001600160ff168152602001600060ff168152602001600060ff168152602001600160ff168152602001600160ff168152602001600160ff168152602001600060ff168152602001600060ff168152602001600160ff168152602001600160ff168152602001600060ff168152602001600060ff168152602001600160ff168152602001600060ff168152602001600060ff168152602001600160ff168152602001600060ff168152602001600060ff168152602001600060ff168152602001600060ff168152602001600060ff168152602001600060ff168152602001600060ff168152602001600060ff168152602001600160ff168152602001600060ff168152602001600060ff168152602001600160ff168152602001600060ff168152602001600160ff168152602001600160ff168152602001600160ff168152602001600060ff168152602001600160ff168152602001600160ff168152602001600060ff168152602001600060ff168152602001600160ff168152602001600160ff168152602001600160ff168152602001600160ff168152602001600060ff168152602001600160ff168152602001600160ff168152602001600160ff168152602001600060ff168152602001600160ff168152602001600160ff168152602001600060ff168152602001600160ff168152602001600060ff168152602001600060ff168152602001600160ff168152602001600160ff168152602001600060ff168152602001600160ff168152602001600060ff168152602001600160ff168152602001600160ff168152602001600160ff168152602001600160ff168152602001600160ff168152602001600160ff168152602001600060ff168152602001600060ff168152602001600060ff168152602001600060ff168152602001600060ff168152602001600060ff168152602001600160ff168152602001600060ff168152602001600060ff168152602001600060ff168152602001600060ff168152602001600060ff168152602001600060ff168152602001600160ff168152602001600160ff168152602001600160ff168152602001600060ff168152602001600160ff168152602001600160ff168152602001600160ff168152602001600160ff168152602001600060ff168152602001600160ff168152602001600160ff168152602001600060ff168152602001600160ff168152602001600160ff168152602001600060ff168152602001600160ff168152602001600160ff168152602001600160ff168152602001600060ff168152602001600060ff168152602001600060ff168152602001600160ff168152602001600060ff168152602001600160ff168152602001600060ff168152602001600160ff168152602001600160ff168152602001600160ff168152602001600160ff168152602001600160ff168152602001600160ff168152602001600060ff168152602001600060ff168152602001600160ff168152602001600160ff168152602001600060ff168152602001600060ff168152602001600060ff168152602001600160ff168152602001600060ff168152602001600060ff168152602001600160ff168152602001600060ff168152602001600160ff168152602001600160ff168152602001600060ff168152602001600160ff168152602001600160ff168152602001600060ff168152602001600060ff168152602001600160ff168152602001600060ff168152602001600060ff168152602001600160ff168152602001600060ff168152602001600160ff168152602001600060ff168152602001600160ff168152602001600060ff168152602001600060ff168152602001600060ff168152602001600160ff168152602001600160ff168152602001600060ff168152602001600060ff168152602001600060ff168152602001600060ff168152602001600160ff168152602001600160ff168152602001600060ff168152602001600060ff168152602001600160ff168152602001600160ff168152602001600160ff168152602001600060ff168152602001600160ff168152602001600160ff168152602001600160ff168152602001600160ff168152602001600060ff168152602001600060ff168152602001600160ff168152602001600060ff168152602001600160ff168152602001600160ff168152602001600160ff168152602001600060ff168152602001600160ff168152602001600060ff168152602001600060ff168152602001600060ff168152602001600060ff168152602001600160ff168152602001600060ff168152602001600160ff168152602001600060ff168152602001600160ff168152602001600160ff168152602001600160ff168152602001600160ff168152602001600160ff168152602001600160ff168152602001600160ff168152602001600060ff168152602001600060ff168152602001600060ff168152602001600160ff168152602001600060ff168152602001600160ff168152602001600160ff168152602001600160ff168152602001600160ff168152602001600160ff168152602001600060ff168152602001600060ff168152602001600060ff168152602001600160ff168152602001600060ff168152602001600060ff168152602001600060ff168152602001600060ff168152602001600160ff168152602001600060ff168152602001600160ff168152602001600060ff168152602001600160ff168152602001600060ff168152602001600060ff168152602001600160ff168152602001600060ff168152602001600060ff168152602001600160ff168152602001600060ff168152602001600160ff168152602001600160ff168152602001600060ff168152602001600160ff168152602001600160ff168152602001600060ff168152602001600060ff168152602001600160ff168152602001600160ff168152602001600160ff168152602001600060ff168152602001600160ff168152602001600060ff168152602001600060ff168152602001600160ff168152602001600160ff168152602001600160ff168152602001600160ff168152602001600060ff168152602001600160ff168152602001600060ff168152602001600160ff168152602001600060ff168152602001600060ff168152602001600060ff168152602001600160ff168152602001600060ff168152602001600060ff168152602001600160ff168152602001600160ff168152602001600060ff168152602001600060ff168152602001600060ff168152602001600060ff168152602001600060ff168152602001600060ff168152602001600160ff168152602001600060ff168152602001600060ff168152602001600060ff168152602001600160ff168152602001600160ff168152602001600060ff168152602001600160ff168152602001600160ff168152602001600160ff168152602001600060ff168152602001600160ff168152602001600060ff168152602001600060ff168152602001600160ff168152602001600160ff168152602001600160ff168152602001600060ff168152602001600060ff168152602001600160ff168152602001600160ff168152602001600060ff168152602001600060ff168152602001600160ff168152602001600060ff168152602001600060ff168152602001600160ff168152602001600060ff168152602001600060ff168152602001600060ff168152602001600060ff168152602001600060ff168152602001600060ff168152602001600060ff168152602001600060ff168152602001600160ff168152602001600060ff168152602001600060ff168152602001600160ff168152602001600060ff168152602001600160ff168152602001600160ff168152602001600160ff168152602001600060ff168152602001600160ff168152602001600160ff168152602001600060ff168152602001600060ff168152602001600160ff168152602001600160ff168152602001600160ff168152602001600160ff168152602001600060ff168152602001600160ff168152602001600160ff168152602001600160ff168152602001600060ff168152602001600160ff168152602001600160ff168152602001600060ff168152602001600160ff168152602001600060ff168152602001600060ff168152602001600160ff168152602001600160ff168152602001600060ff168152602001600160ff168152602001600060ff168152602001600160ff168152602001600160ff168152602001600160ff168152602001600160ff168152602001600160ff168152602001600160ff168152602001600060ff168152602001600060ff168152602001600060ff168152602001600060ff168152602001600060ff168152602001600060ff168152602001600160ff168152602001600060ff168152602001600060ff168152602001600060ff168152602001600060ff168152602001600060ff168152602001600060ff168152602001600160ff168152602001600160ff168152602001600160ff168152602001600060ff168152602001600160ff168152602001600160ff168152602001600160ff168152602001600160ff168152602001600060ff168152602001600160ff168152602001600160ff168152602001600060ff168152602001600160ff168152602001600160ff168152602001600060ff168152602001600160ff168152602001600160ff168152602001600160ff168152602001600060ff168152602001600060ff168152602001600060ff168152602001600160ff168152602001600060ff168152602001600160ff168152602001600060ff168152602001600160ff168152602001600160ff168152602001600160ff168152602001600160ff168152602001600160ff168152602001600160ff168152602001600060ff168152602001600060ff168152602001600160ff168152602001600160ff168152602001600060ff168152602001600060ff168152602001600060ff168152602001600160ff168152602001600060ff168152602001600060ff168152602001600160ff168152602001600060ff168152602001600160ff168152602001600160ff168152602001600060ff168152602001600160ff168152602001600160ff168152602001600060ff168152602001600060ff168152602001600160ff168152602001600060ff168152602001600060ff168152602001600160ff168152602001600060ff168152602001600160ff168152602001600060ff168152602001600160ff168152602001600060ff168152602001600060ff168152602001600060ff168152602001600160ff168152602001600160ff168152602001600060ff168152602001600060ff168152602001600060ff168152602001600060ff168152602001600160ff168152602001600160ff168152602001600060ff168152602001600060ff168152602001600160ff168152602001600160ff168152602001600160ff168152602001600060ff168152602001600160ff168152602001600160ff168152602001600160ff168152602001600160ff168152602001600060ff168152602001600060ff168152602001600160ff168152602001600060ff168152602001600160ff168152602001600160ff168152602001600160ff168152602001600060ff168152602001600160ff168152602001600060ff168152602001600060ff168152602001600060ff168152602001600060ff168152602001600160ff168152602001600060ff168152602001600160ff168152602001600060ff168152602001600160ff168152602001600160ff168152602001600160ff168152602001600160ff168152602001600160ff168152602001600160ff168152602001600160ff168152602001600060ff168152602001600060ff168152602001600060ff168152602001600160ff168152602001600060ff168152602001600160ff168152602001600160ff168152602001600160ff168152602001600160ff168152602001600160ff168152602001600060ff168152602001600060ff168152602001600060ff168152602001600160ff168152602001600060ff168152602001600060ff168152602001600060ff168152602001600060ff168152602001600160ff168152602001600060ff168152602001600160ff168152602001600060ff168152602001600160ff168152602001600060ff168152602001600060ff168152602001600160ff168152602001600060ff168152602001600060ff168152602001600160ff168152602001600060ff168152602001600160ff168152602001600160ff168152602001600060ff168152602001600160ff168152602001600160ff168152602001600060ff168152602001600060ff168152602001600160ff168152602001600160ff168152602001600160ff168152602001600060ff168152602001600160ff168152602001600060ff168152602001600060ff168152602001600160ff168152602001600160ff168152602001600160ff168152602001600160ff168152602001600060ff168152602001600160ff168152602001600060ff168152602001600160ff168152602001600060ff168152602001600060ff168152602001600060ff168152602001600160ff168152602001600060ff168152602001600060ff168152602001600160ff168152602001600160ff168152602001600060ff168152602001600060ff168152602001600060ff168152602001600060ff168152602001600060ff168152602001600060ff168152602001600160ff168152602001600060ff168152602001600060ff168152602001600060ff168152602001600160ff168152602001600160ff168152602001600060ff168152602001600160ff168152602001600160ff168152602001600160ff168152602001600060ff168152602001600160ff168152602001600060ff168152602001600060ff168152602001600160ff168152602001600160ff168152602001600160ff168152602001600060ff168152602001600060ff168152602001600160ff168152602001600160ff168152602001600060ff168152602001600060ff168152602001600160ff168152602001600060ff168152602001600060ff168152602001600160ff168152602001600060ff168152602001600060ff168152602001600060ff168152602001600060ff168152602001600060ff168152602001600060ff168152602001600060ff168152602001600060ff168152602001600160ff168152602001600060ff168152602001600060ff168152602001600160ff168152602001600060ff168152602001600160ff168152602001600160ff168152602001600160ff168152602001600060ff168152602001600160ff168152602001600160ff168152602001600060ff168152602001600060ff168152602001600160ff168152602001600160ff168152602001600160ff168152602001600160ff168152602001600060ff168152602001600160ff168152602001600160ff168152602001600160ff168152602001600060ff168152602001600160ff168152602001600160ff168152602001600060ff168152602001600160ff168152602001600060ff168152602001600060ff168152602001600160ff168152602001600160ff168152602001600060ff168152602001600160ff168152602001600060ff168152602001600160ff168152602001600160ff168152602001600160ff168152602001600160ff168152602001600160ff168152602001600160ff168152602001600060ff168152602001600060ff168152602001600060ff168152602001600060ff168152602001600060ff168152602001600060ff168152602001600160ff168152602001600060ff168152602001600060ff168152602001600060ff168152602001600060ff168152602001600060ff168152602001600060ff168152602001600160ff168152602001600160ff168152602001600160ff168152602001600060ff168152602001600160ff168152602001600160ff168152602001600160ff168152602001600160ff168152602001600060ff168152602001600160ff168152602001600160ff168152602001600060ff168152602001600160ff168152602001600160ff168152602001600060ff168152602001600160ff168152602001600160ff168152602001600160ff168152602001600060ff168152602001600060ff168152602001600060ff168152602001600160ff168152602001600060ff168152602001600160ff168152602001600060ff168152602001600160ff168152602001600160ff168152602001600160ff168152602001600160ff168152602001600160ff168152602001600160ff168152602001600060ff168152602001600060ff168152602001600160ff168152602001600160ff168152602001600060ff168152602001600060ff168152602001600060ff168152602001600160ff168152602001600060ff168152602001600060ff168152602001600160ff168152602001600060ff168152602001600160ff168152602001600160ff168152602001600060ff168152602001600160ff168152602001600160ff168152602001600060ff168152602001600060ff168152602001600160ff168152602001600060ff168152602001600060ff168152602001600160ff168152602001600060ff168152602001600160ff168152602001600060ff168152602001600160ff168152602001600060ff168152602001600060ff168152602001600060ff168152602001600160ff168152602001600160ff168152602001600060ff168152602001600060ff168152602001600060ff168152602001600060ff168152602001600160ff168152602001600160ff168152602001600060ff168152602001600060ff168152602001600160ff168152602001600160ff168152602001600160ff168152602001600060ff168152602001600160ff168152602001600160ff168152602001600160ff168152602001600160ff168152602001600060ff168152602001600060ff168152602001600160ff168152602001600060ff168152602001600160ff168152602001600160ff168152602001600160ff168152602001600060ff168152602001600160ff168152602001600060ff168152602001600060ff168152602001600060ff168152602001600060ff168152602001600160ff168152602001600060ff168152602001600160ff168152602001600060ff168152602001600160ff168152602001600160ff168152602001600160ff168152602001600160ff168152602001600160ff168152602001600160ff168152602001600160ff168152602001600060ff168152602001600060ff168152602001600060ff168152602001600160ff168152602001600060ff168152602001600160ff168152602001600160ff168152602001600160ff168152602001600160ff168152602001600160ff168152602001600060ff168152602001600060ff168152602001600060ff168152602001600160ff168152602001600060ff168152602001600060ff168152602001600060ff168152602001600060ff168152602001600160ff168152602001600060ff168152602001600160ff168152602001600060ff168152602001600160ff168152602001600060ff168152602001600060ff168152602001600160ff168152602001600060ff168152602001600060ff168152602001600160ff168152602001600060ff168152602001600160ff168152602001600160ff168152602001600060ff168152602001600160ff168152602001600160ff168152602001600060ff168152602001600060ff168152602001600160ff168152602001600160ff168152602001600160ff168152602001600060ff168152602001600160ff168152602001600060ff168152602001600060ff168152602001600160ff168152602001600160ff168152602001600160ff168152602001600160ff168152602001600060ff168152602001600160ff168152602001600060ff168152602001600160ff168152602001600060ff168152602001600060ff168152602001600060ff168152602001600160ff168152602001600060ff168152602001600060ff168152602001600160ff168152602001600160ff168152602001600060ff168152602001600060ff168152602001600060ff168152602001600060ff168152602001600060ff168152602001600060ff168152602001600160ff168152602001600060ff168152602001600060ff168152602001600060ff168152602001600160ff168152602001600160ff168152602001600060ff168152602001600160ff168152602001600160ff168152602001600160ff168152602001600060ff168152602001600160ff168152602001600060ff168152602001600060ff168152602001600160ff168152602001600160ff168152602001600160ff168152602001600060ff168152602001600060ff168152602001600160ff168152602001600160ff168152602001600060ff168152602001600060ff168152602001600160ff168152602001600060ff168152602001600060ff168152602001600160ff168152602001600060ff168152602001600060ff168152602001600060ff168152602001600060ff168152602001600060ff168152602001600060ff168152602001600060ff168152602001600060ff168152602001600160ff168152602001600060ff168152602001600060ff168152602001600160ff168152602001600060ff168152602001600160ff168152602001600160ff168152602001600160ff168152602001600060ff168152602001600160ff168152602001600160ff168152602001600060ff168152602001600060ff168152602001600160ff168152602001600160ff168152602001600160ff168152602001600160ff168152602001600060ff168152602001600160ff168152602001600160ff168152602001600160ff168152602001600060ff168152602001600160ff168152602001600160ff168152602001600060ff168152602001600160ff168152602001600060ff16815250605190610400620054c592919062005564565b50348015620054d357600080fd5b5062005661565b82601081019282156200550c579160200282015b828111156200550b578251825591602001919060010190620054ee565b5b5090506200551b919062005606565b5090565b82600c810192821562005551579160200282015b828111156200555057825182559160200191906001019062005533565b5b50905062005560919062005606565b5090565b82610400601f01602090048101928215620055f35791602002820160005b83821115620055c257835183826101000a81548160ff021916908360ff160217905550926020019260010160208160000104928301926001030262005582565b8015620055f15782816101000a81549060ff0219169055600101602081600001049283019260010302620055c2565b505b5090506200560291906200562e565b5090565b6200562b91905b80821115620056275760008160009055506001016200560d565b5090565b90565b6200565e91905b808211156200565a57600081816101000a81549060ff02191690555060010162005635565b5090565b90565b610f0080620056716000396000f3fe608060405234801561001057600080fd5b50600436106100365760003560e01c806326ee1dfe1461003b5780636683131f14610059575b600080fd5b610043610089565b6040516100509190610db1565b60405180910390f35b610073600480360381019061006e9190610c49565b610695565b6040516100809190610d95565b60405180910390f35b6000604051806040016040528060016000601081106100a457fe5b01548152602001600180601081106100b857fe5b0154815250601d60008201518160000155602082015181600101559050506040518060400160405280604051806040016040528060016002601081106100fa57fe5b01548152602001600160036010811061010f57fe5b015481525081526020016040518060400160405280600160046010811061013257fe5b01548152602001600160056010811061014757fe5b0154815250815250601f6000820151816000019060026101689291906109d0565b506020820151816002019060026101809291906109d0565b509050506040518060400160405280600160066010811061019d57fe5b0154815260200160016007601081106101b257fe5b015481525060236000820151816000015560208201518160010155905050604051806040016040528060016008601081106101e957fe5b0154815260200160016009601081106101fe57fe5b015481525060256000820151816000015560208201518160010155905050604051806040016040528060405180604001604052806001600a6010811061024057fe5b015481526020016001600b6010811061025557fe5b0154815250815260200160405180604001604052806001600c6010811061027857fe5b015481526020016001600d6010811061028d57fe5b015481525081525060276000820151816000019060026102ae9291906109d0565b506020820151816002019060026102c69291906109d0565b5090505060405180604001604052806001600e601081106102e357fe5b015481526020016001600f601081106102f857fe5b0154815250602b6000820151816000015560208201518160010155905050610360602360405180604001604052908160008201548152602001600182015481525050601d60405180604001604052908160008201548152602001600182015481525050610707565b602d60008201518160000155602082015181600101559050506103c3602b60405180604001604052908160008201548152602001600182015481525050602560405180604001604052908160008201548152602001600182015481525050610707565b602f60008201518160000155602082015181600101559050506000610556602f60405180604001604052908160008201548152602001600182015481525050601f6040518060400160405290816000820160028060200260405190810160405280929190826002801561044b576020028201915b815481526020019060010190808311610437575b5050505050815260200160028201600280602002604051908101604052809291908260028015610490576020028201915b81548152602001906001019080831161047c575b505050505081525050602d60405180604001604052908160008201548152602001600182015481525050602760405180604001604052908160008201600280602002604051908101604052809291908260028015610503576020028201915b8154815260200190600101908083116104ef575b5050505050815260200160028201600280602002604051908101604052809291908260028015610548576020028201915b815481526020019060010190808311610534575b50505050508152505061076e565b9050601f60716000820181600001906002610572929190610a10565b506002820181600201906002610589929190610a10565b5090505060236075600082015481600001556001820154816001015590505061067c6031610400806020026040519081016040528092919082610400801561060c576020028201916000905b82829054906101000a900460ff1660ff16815260200190600101906020826000010492830192600103820291508084116105d55790505b505050505060516104008060200260405190810160405280929190826104008015610672576020028201916000905b82829054906101000a900460ff1660ff168152602001906001019060208260000104928301926001038202915080841161063b5790505b5050505050610695565b60779061040061068d929190610a4d565b508091505090565b61069d610ae8565b60008090505b6104008110156106fd57828161040081106106ba57fe5b6020020151848261040081106106cc57fe5b602002015118828261040081106106df57fe5b602002019060ff16908160ff168152505080806001019150506106a3565b5080905092915050565b61070f610b0c565b60008061074b60405180608001604052808760000151815260200187602001518152602001866000015181526020018660200151815250610897565b915091506040518060400160405280838152602001828152509250505092915050565b600061077985610923565b945061088d604051806101800160405280876000015181526020018760200151815260200186600001516000600281106107af57fe5b6020020151815260200186600001516001600281106107ca57fe5b6020020151815260200186602001516000600281106107e557fe5b60200201518152602001866020015160016002811061080057fe5b602002015181526020018560000151815260200185602001518152602001846000015160006002811061082f57fe5b60200201518152602001846000015160016002811061084a57fe5b60200201518152602001846020015160006002811061086557fe5b60200201518152602001846020015160016002811061088057fe5b6020020151815250610953565b9050949350505050565b60008060006108a4610b26565b60408160808760006006600019f19150816108f4576040517f08c379a00000000000000000000000000000000000000000000000000000000081526004016108eb90610dcc565b60405180910390fd5b8060006002811061090157fe5b60200201518160016002811061091357fe5b6020020151935093505050915091565b61092b610b0c565b6040518060400160405280836000015181526020018360200151600054038152509050919050565b600061095d610b48565b600060208261018086600060086107d05a03f19050806109b2576040517f08c379a00000000000000000000000000000000000000000000000000000000081526004016109a990610dec565b60405180910390fd5b6001826000600181106109c157fe5b60200201511492505050919050565b82600281019282156109ff579160200282015b828111156109fe5782518255916020019190600101906109e3565b5b509050610a0c9190610b6a565b5090565b8260028101928215610a3c579182015b82811115610a3b578254825591600101919060010190610a20565b5b509050610a499190610b6a565b5090565b82610400601f01602090048101928215610ad75791602002820160005b83821115610aa857835183826101000a81548160ff021916908360ff1602179055509260200192600101602081600001049283019260010302610a6a565b8015610ad55782816101000a81549060ff0219169055600101602081600001049283019260010302610aa8565b505b509050610ae49190610b8f565b5090565b60405180618000016040528061040090602082028036833780820191505090505090565b604051806040016040528060008152602001600081525090565b6040518060400160405280600290602082028036833780820191505090505090565b6040518060200160405280600190602082028036833780820191505090505090565b610b8c91905b80821115610b88576000816000905550600101610b70565b5090565b90565b610bbc91905b80821115610bb857600081816101000a81549060ff021916905550600101610b95565b5090565b90565b600082601f830112610bd057600080fd5b610400610be4610bdf82610e39565b610e0c565b91508183856020840282011115610bfa57600080fd5b60005b83811015610c2a5781610c108882610c34565b845260208401935060208301925050600181019050610bfd565b5050505092915050565b600081359050610c4381610eb3565b92915050565b600080620100008385031215610c5e57600080fd5b6000610c6c85828601610bbf565b925050618000610c7e85828601610bbf565b9150509250929050565b6000610c948383610d86565b60208301905092915050565b610ca981610e65565b610cb38184610e7e565b9250610cbe82610e5b565b8060005b83811015610cef578151610cd68782610c88565b9650610ce183610e71565b925050600181019050610cc2565b505050505050565b610d0081610e9a565b82525050565b6000610d13601583610e89565b91507f626e323536206164646974696f6e206661696c656400000000000000000000006000830152602082019050919050565b6000610d53601d83610e89565b91507f656c6c69707469632063757276652070616972696e67206661696c65640000006000830152602082019050919050565b610d8f81610ea6565b82525050565b600061800082019050610dab6000830184610ca0565b92915050565b6000602082019050610dc66000830184610cf7565b92915050565b60006020820190508181036000830152610de581610d06565b9050919050565b60006020820190508181036000830152610e0581610d46565b9050919050565b6000604051905081810181811067ffffffffffffffff82111715610e2f57600080fd5b8060405250919050565b600067ffffffffffffffff821115610e5057600080fd5b602082029050919050565b6000819050919050565b60006104009050919050565b6000602082019050919050565b600081905092915050565b600082825260208201905092915050565b60008115159050919050565b600060ff82169050919050565b610ebc81610ea6565b8114610ec757600080fd5b5056fea26469706673582212207d98067f07799ab3b6c43886086dfa5cdfe084ac102fa7736f0e45d443f86b0864736f6c63430006090033",
  "immutableReferences": {},
  "source": "pragma solidity >0.6.8;\r\npragma experimental ABIEncoderV2;\r\n\r\nimport \"./BN256G1.sol\";\r\nimport \"./BN256G2.sol\";\r\n\r\ncontract bpreet{\r\n    \r\n    // The prime q in the base field F_q for G1 and G2\r\n    uint256 q = 21888242871839275222246405745257275088696311157297823662689037894645226208583;\r\n    \r\n    struct G1Point {\r\n        uint256 x;\r\n        uint256 y;\r\n    }\r\n    \r\n    // Encoding of field elements is: X[0] * z + X[1]\r\n    struct G2Point {\r\n        uint256[2] x;\r\n        uint256[2] y;\r\n    }\r\n    \r\n    /// @return the generator of G1\r\n    function get_P1() internal pure returns (G1Point memory) {\r\n        return G1Point(1,2);\r\n    }\r\n    \r\n    /// @return the generator of G2\r\n    function get_P2() internal pure returns (G2Point memory) { // RE+IM\r\n        return G2Point(\r\n            [11559732032986387107991004021392285783925812861821192530917403151452391805634,\r\n            10857046999023057135944570762232829481370756359578518086990519993285655852781],\r\n\r\n            [4082367875863433681332203403145435568316851327593401208105741076214120093531,\r\n            8495653923123431417604973247489272438418190587263600148770280649306958101930]\r\n        );\r\n    }\r\n    \r\n    uint256[16] data_bpreet_match = [1986055279621069618691042502138672792472614177592589543740279299025184965884,9489316621577563586298481056604897407627431296165856521504253851838493540987,8781815099544802676939842085952755716473963336612871989575358702945673060530,13552005530162624136065154721795141348919666445342724839206767491510914994746,13383013570969648334286396973792382879519444986144491216418542534986792391742,4033161127238676808459691528420437294902460973125175744185357472956166274816,15073682102918161242038922390991973883666502123538390212287946516889628308489,5513439859081403987706940927640530215408629271906514889595160982341002738801,18461489736239396275468372529118349415400476649354286157212668143856108550572,13044202910766424187801103884875358140397424340799316720100723566865333122490,13600124832011620356336449480576044011952302527588103762730722006208930388040,14763806514245193795070281852063690189181964491763988490631885711328480426494,6838028590879359414769790452128888309458925959932598830276493308006809860827,5951802580148398196547165055464134526919219185121980865304578140416652702028,1162363815720261811822521607175424784740905107777103477451852564584488683312,8772240173665818998659652367216658294060103758235977404002353932267095581900];\r\n    uint256[12] data_ours = [1344815266627152914463283187279845014755278383291928694753353909171541394836,1837084702305838889412151982805224136594203407900595612401995120507341638253,19839141298644168206850811700572802443008367594493968284253945076485445614608,11617866393225684691713609743008868608607314573997975980766333001837012379216,7383231868876646222195468749902527960069588114973748733017148496746406391488,1094506385187987980671121129049916252537269967468799114882808093616436420006,15283262374429383375304170429218118790700409077486321569696264151497731261777,766905428022367800974453098558968609485389762749412342090187280333532958245,608484566425133779458653715128378710773148367524777651843586825221680898978,1071912538064115488515953769896709270070486935857413703010556424607006350289,1901780301392249165586607880197462042528159087641747558549477366011048942627,7759350841895642906299761855054985662846019555610802689508201383244709645118];\r\n    \r\n    G1Point Tioj;\r\n    G2Point Ci1;\r\n    G1Point Ci2;\r\n    G1Point Tjio;\r\n    G2Point Cj1;\r\n    G1Point Cj2;\r\n    G1Point ICi;\r\n    G1Point ICj;\r\n    \r\n    uint8[1024] Ci3 = [\r\n    0,1,1,1,1,0,0,1,0,1,0,1,0,0,0,1,1,1,0,1,0,1,1,0,1,0,0,0,0,1,0,0,0,1,1,1,1,1,0,0,1,1,0,0,0,1,0,1,0,0,1,0,0,0,1,0,0,1,1,1,0,1,0,1,\r\n    1,1,1,0,0,1,0,1,1,0,0,0,0,1,1,0,1,0,0,0,0,0,1,1,1,0,0,0,0,0,1,0,1,1,1,1,1,1,1,0,1,1,0,1,1,0,1,0,1,0,0,0,1,1,1,0,1,1,1,1,1,1,0,1,\r\n    1,0,1,1,0,1,1,1,0,0,1,0,0,1,1,1,1,0,0,0,0,0,1,0,1,0,0,1,1,0,1,0,1,0,1,1,0,1,0,1,1,1,0,1,0,1,1,1,1,0,1,0,1,0,1,1,0,0,1,1,1,1,1,1,\r\n    1,1,0,1,1,1,0,0,0,0,1,1,0,1,1,0,1,1,1,0,1,1,1,0,1,1,0,1,0,1,0,1,0,0,0,0,1,0,1,1,1,0,1,1,0,0,1,1,0,1,1,1,0,1,1,1,1,0,1,1,0,0,0,0,\r\n    0,1,0,1,1,1,1,0,0,1,1,1,1,0,0,1,0,1,1,0,1,1,0,0,0,0,1,0,1,1,1,0,0,0,0,1,1,0,0,1,1,0,0,1,0,0,0,0,1,0,0,1,1,0,0,1,0,1,0,1,0,1,1,0,\r\n    1,0,0,0,0,0,0,0,0,0,1,1,0,0,1,1,1,1,0,1,1,0,0,1,0,0,0,1,1,1,0,0,1,1,1,1,1,1,1,0,1,1,1,1,1,0,0,0,1,0,1,1,0,1,0,0,0,1,1,1,0,1,1,1,\r\n    0,1,0,1,0,0,0,0,0,0,0,1,1,1,1,0,0,0,0,1,0,0,0,1,1,1,0,0,1,0,0,1,1,1,1,1,1,1,0,0,1,1,1,0,0,0,0,1,0,1,0,0,1,0,0,1,0,1,1,0,1,0,1,1,\r\n    0,1,1,1,1,0,0,1,1,0,1,1,1,1,0,0,0,0,1,0,1,0,1,1,1,0,1,1,0,1,0,0,0,0,1,0,1,1,1,1,1,1,1,1,1,1,0,1,0,0,1,1,1,1,1,1,1,1,1,1,0,1,1,1,\r\n    0,1,1,1,1,1,0,0,1,1,1,1,1,0,1,0,1,1,1,0,1,0,0,0,0,1,1,1,1,0,0,0,0,1,1,0,0,0,0,1,1,1,1,0,1,1,0,1,0,1,1,1,1,0,1,0,1,0,0,0,0,0,1,1,\r\n    1,1,1,1,0,1,1,0,0,0,1,1,1,1,0,0,1,1,0,0,0,1,0,0,0,1,0,0,1,1,0,0,1,1,0,1,0,0,1,1,0,1,0,1,1,0,0,1,0,1,0,0,1,1,1,1,0,0,0,0,1,0,0,1,\r\n    1,1,0,1,1,0,0,0,0,1,0,0,0,1,0,1,0,0,0,1,0,1,0,0,0,1,0,1,0,1,0,0,0,1,0,1,0,0,0,0,1,0,0,1,1,1,1,0,1,0,0,1,0,0,0,0,0,1,0,0,1,0,0,0,\r\n    0,0,1,1,1,1,0,1,0,1,0,0,1,1,0,1,0,0,0,0,0,0,1,0,0,1,0,0,0,1,0,1,1,1,1,0,0,0,1,1,0,1,0,1,0,1,0,0,1,0,0,0,1,1,0,0,1,0,1,0,1,0,1,0,\r\n    0,1,0,1,1,1,0,1,1,0,1,1,1,1,1,1,0,1,1,0,1,1,0,0,0,0,0,1,0,0,1,0,0,0,0,0,1,0,1,1,1,0,0,1,1,1,0,0,0,0,0,0,1,1,0,1,1,0,1,0,1,0,0,0,\r\n    1,1,1,1,0,1,0,1,0,1,0,0,1,0,1,1,0,0,1,1,1,0,1,1,1,1,1,0,1,0,0,0,0,1,0,0,0,1,1,1,0,1,0,0,1,0,1,1,0,0,1,1,0,1,1,1,1,0,1,1,0,1,1,1,\r\n    1,0,1,1,1,0,0,0,1,0,0,1,0,1,0,1,0,0,1,0,0,1,1,1,1,0,1,1,0,0,1,1,1,0,0,1,0,1,0,0,0,1,0,1,1,0,1,0,0,1,0,0,1,1,1,1,0,0,0,1,0,1,0,1,\r\n    1,1,1,0,0,1,0,0,0,0,1,1,0,1,1,1,1,1,0,0,0,1,1,1,1,1,0,1,1,1,1,1,1,1,0,0,0,1,0,0,1,0,0,0,1,0,1,0,0,0,0,1,1,1,1,0,1,1,1,1,0,0,1,0];\r\n    \r\n    uint8[1024] rk_ioj = [\r\n    0,1,1,0,1,0,1,1,1,1,1,1,0,0,0,0,0,0,1,0,0,0,0,0,0,1,1,1,0,1,1,1,1,0,1,1,0,1,1,0,1,1,1,0,0,0,1,0,1,0,1,1,1,1,1,1,0,0,1,1,0,0,0,1,\r\n    0,0,1,0,1,1,0,1,1,0,0,1,0,0,1,0,1,0,1,0,0,0,1,1,0,0,0,0,1,1,0,0,1,1,1,0,1,1,1,1,0,0,1,0,1,1,1,0,1,0,0,0,0,1,0,1,0,1,1,1,1,1,1,1,\r\n    0,0,0,1,0,1,1,1,1,1,0,0,0,1,0,0,0,0,1,0,1,0,1,0,0,1,0,0,1,0,1,1,0,1,1,0,0,1,1,1,0,1,0,0,1,1,1,1,0,1,0,1,0,0,0,1,0,0,1,1,0,0,0,0,\r\n    0,0,1,0,0,0,1,1,0,1,1,1,0,1,0,0,1,1,1,0,0,1,1,0,0,1,0,0,1,0,0,0,0,0,0,0,0,1,0,0,1,0,1,1,1,0,1,1,0,0,1,1,1,1,0,1,1,1,0,1,1,0,1,0,\r\n    0,1,1,0,1,0,1,1,1,1,1,1,0,0,0,0,0,0,1,0,0,0,0,0,0,1,1,1,0,1,1,1,1,0,1,1,0,1,1,0,1,1,1,0,0,0,1,0,1,0,1,1,1,1,1,1,0,0,1,1,0,0,0,1,\r\n    0,0,1,0,1,1,0,1,1,0,0,1,0,0,1,0,1,0,1,0,0,0,1,1,0,0,0,0,1,1,0,0,1,1,1,0,1,1,1,1,0,0,1,0,1,1,1,0,1,0,0,0,0,1,0,1,0,1,1,1,1,1,1,1,\r\n    0,0,0,1,0,1,1,1,1,1,0,0,0,1,0,0,0,0,1,0,1,0,1,0,0,1,0,0,1,0,1,1,0,1,1,0,0,1,1,1,0,1,0,0,1,1,1,1,0,1,0,1,0,0,0,1,0,0,1,1,0,0,0,0,\r\n    0,0,1,0,0,0,1,1,0,1,1,1,0,1,0,0,1,1,1,0,0,1,1,0,0,1,0,0,1,0,0,0,0,0,0,0,0,1,0,0,1,0,1,1,1,0,1,1,0,0,1,1,1,1,0,1,1,1,0,1,1,0,1,0,\r\n    0,1,1,0,1,0,1,1,1,1,1,1,0,0,0,0,0,0,1,0,0,0,0,0,0,1,1,1,0,1,1,1,1,0,1,1,0,1,1,0,1,1,1,0,0,0,1,0,1,0,1,1,1,1,1,1,0,0,1,1,0,0,0,1,\r\n    0,0,1,0,1,1,0,1,1,0,0,1,0,0,1,0,1,0,1,0,0,0,1,1,0,0,0,0,1,1,0,0,1,1,1,0,1,1,1,1,0,0,1,0,1,1,1,0,1,0,0,0,0,1,0,1,0,1,1,1,1,1,1,1,\r\n    0,0,0,1,0,1,1,1,1,1,0,0,0,1,0,0,0,0,1,0,1,0,1,0,0,1,0,0,1,0,1,1,0,1,1,0,0,1,1,1,0,1,0,0,1,1,1,1,0,1,0,1,0,0,0,1,0,0,1,1,0,0,0,0,\r\n    0,0,1,0,0,0,1,1,0,1,1,1,0,1,0,0,1,1,1,0,0,1,1,0,0,1,0,0,1,0,0,0,0,0,0,0,0,1,0,0,1,0,1,1,1,0,1,1,0,0,1,1,1,1,0,1,1,1,0,1,1,0,1,0,\r\n    0,1,1,0,1,0,1,1,1,1,1,1,0,0,0,0,0,0,1,0,0,0,0,0,0,1,1,1,0,1,1,1,1,0,1,1,0,1,1,0,1,1,1,0,0,0,1,0,1,0,1,1,1,1,1,1,0,0,1,1,0,0,0,1,\r\n    0,0,1,0,1,1,0,1,1,0,0,1,0,0,1,0,1,0,1,0,0,0,1,1,0,0,0,0,1,1,0,0,1,1,1,0,1,1,1,1,0,0,1,0,1,1,1,0,1,0,0,0,0,1,0,1,0,1,1,1,1,1,1,1,\r\n    0,0,0,1,0,1,1,1,1,1,0,0,0,1,0,0,0,0,1,0,1,0,1,0,0,1,0,0,1,0,1,1,0,1,1,0,0,1,1,1,0,1,0,0,1,1,1,1,0,1,0,1,0,0,0,1,0,0,1,1,0,0,0,0,\r\n    0,0,1,0,0,0,1,1,0,1,1,1,0,1,0,0,1,1,1,0,0,1,1,0,0,1,0,0,1,0,0,0,0,0,0,0,0,1,0,0,1,0,1,1,1,0,1,1,0,0,1,1,1,1,0,1,1,1,0,1,1,0,1,0];\r\n    \r\n    G2Point Cj1_;\r\n    G1Point Cj2_;\r\n    uint8[1024] Cj3_;\r\n    \r\n    //  (BPREET) \r\n    function testBPREET1()public returns(bool)\r\n    {\r\n        Tioj = G1Point(data_bpreet_match[0], data_bpreet_match[1]);\r\n        Ci1 = G2Point([data_bpreet_match[2],data_bpreet_match[3]],[data_bpreet_match[4],data_bpreet_match[5]]);\r\n        Ci2 = G1Point(data_bpreet_match[6], data_bpreet_match[7]);\r\n        Tjio = G1Point(data_bpreet_match[8], data_bpreet_match[9]);\r\n        Cj1 = G2Point([data_bpreet_match[10],data_bpreet_match[11]],[data_bpreet_match[12],data_bpreet_match[13]]);\r\n        Cj2 = G1Point(data_bpreet_match[14], data_bpreet_match[15]);\r\n        ICi = g1add(Ci2, Tioj);\r\n        ICj = g1add(Cj2, Tjio);\r\n        \r\n        bool result = pairing_check(ICj, Ci1, ICi, Cj1);\r\n        \r\n        Cj1_ = Ci1;\r\n        Cj2_ = Ci2;\r\n        Cj3_ = xor(Ci3, rk_ioj);\r\n        \r\n        return result;\r\n    }\r\n\r\n    // \r\n\r\n    function xor(uint8[1024] memory a, uint8[1024] memory b) public returns (uint8[1024] memory r)\r\n    {\r\n        for(uint i = 0; i < 1024; i++) {\r\n            r[i] = a[i]^b[i];\r\n        }\r\n        return r;\r\n    }\r\n    \r\n    function g2add(G2Point memory a, G2Point memory b)internal view returns(G2Point memory r)\r\n    {\r\n        (uint256 x_im, uint256 x_re, uint256 y_im, uint256 y_re) = BN256G2.ecTwistAdd(a.x[1], a.x[0], a.y[1], a.y[0], b.x[1], b.x[0], b.y[1], b.y[0]);\r\n        return G2Point([x_re, x_im], [y_re, y_im]);\r\n    }\r\n    \r\n    function g2mul(uint256 s, G2Point memory a)internal view returns(G2Point memory r)\r\n    {\r\n        (uint256 x_im, uint256 x_re, uint256 y_im, uint256 y_re) = BN256G2.ecTwistMul(s, a.x[1], a.x[0], a.y[1], a.y[0]);\r\n        return G2Point([x_re, x_im], [y_re, y_im]);\r\n    }\r\n    \r\n    function g1add(G1Point memory a, G1Point memory b)internal returns(G1Point memory r)\r\n    {\r\n        (uint256 x, uint256 y) = BN256G1.add([a.x, a.y, b.x, b.y]);\r\n        return G1Point(x, y);\r\n    }\r\n    \r\n    function g1mul(uint256 s, G1Point memory a)internal returns(G1Point memory r)\r\n    {\r\n        (uint256 x, uint256 y) = BN256G1.multiply([a.x, a.y, s]);\r\n        return G1Point(x, y);\r\n    }\r\n    \r\n    function g1negate(G1Point memory a) internal view returns(G1Point memory)\r\n    {\r\n        \r\n        return G1Point(a.x, q-a.y);\r\n    }\r\n    \r\n    function g2negate(G2Point memory a) internal view returns(G2Point memory)\r\n    {\r\n        \r\n        return G2Point(\r\n            [a.x[0], a.x[1]],\r\n            [q - a.y[0], q - a.y[1]]);\r\n    }\r\n    \r\n    //  pairing check function\r\n    function pairing_check(G1Point memory P, G2Point memory Q, G1Point memory R, G2Point memory S)internal returns(bool){\r\n        P = g1negate(P);\r\n        return BN256G1.bn256CheckPairing([P.x, P.y, Q.x[0], Q.x[1], Q.y[0], Q.y[1], R.x, R.y, S.x[0], S.x[1], S.y[0], S.y[1]]);\r\n    }\r\n    \r\n}",
  "sourcePath": "D:\\nxshen\\github\\contract_deploy\\contracts\\BPREET.sol",
  "compiler": {
    "name": "solc",
    "version": "0.6.9+commit.3e3065ac.Emscripten.clang"
  },
  "schemaVersion": "3.4.3",
  "updatedAt": "2021-09-30T02:23:04.841Z",
  "networkType": "ethereum",
  "devdoc": {
    "methods": {}
  },
  "userdoc": {
    "methods": {}
  }
}